{
  "transactions": [
    {
      "hash": "0xf19f06934920c11d0bd8b559b1aa7cd0de1e635ac457d380b6815818daf7848d",
      "transactionType": "CALL",
      "contractName": null,
      "contractAddress": "0xade2ba8068b27fae0da07dee0bf3a01f186277e0",
      "function": "grantRole(bytes32,address)",
      "arguments": [
        "0x1ee98a5ea8740dd552db2a55b05f1fb3b0b10ffec53d6239805ee2da549061ca",
        "0xAEB4a045F2730f7794886dccf527202D61Aa11b9"
      ],
      "transaction": {
        "from": "0xaeb4a045f2730f7794886dccf527202d61aa11b9",
        "to": "0xade2ba8068b27fae0da07dee0bf3a01f186277e0",
        "gas": "0x1334e",
        "value": "0x0",
        "input": "0x2f2ff15d1ee98a5ea8740dd552db2a55b05f1fb3b0b10ffec53d6239805ee2da549061ca000000000000000000000000aeb4a045f2730f7794886dccf527202d61aa11b9",
        "nonce": "0xcd",
        "chainId": "0x14a34"
      },
      "additionalContracts": [],
      "isFixedGasLimit": false
    },
    {
      "hash": "0x6d35ee06cf4c9f57ad0d799a6ba4f9bbbd53f40c660d601eca7c0e608fbba1b8",
      "transactionType": "CALL",
      "contractName": null,
      "contractAddress": "0xade2ba8068b27fae0da07dee0bf3a01f186277e0",
      "function": "grantRole(bytes32,address)",
      "arguments": [
        "0x20296b01d0b6bd176f0c1e29644934c0047abf080dae43609a1bbc09e39bafdb",
        "0xAEB4a045F2730f7794886dccf527202D61Aa11b9"
      ],
      "transaction": {
        "from": "0xaeb4a045f2730f7794886dccf527202d61aa11b9",
        "to": "0xade2ba8068b27fae0da07dee0bf3a01f186277e0",
        "gas": "0x1334e",
        "value": "0x0",
        "input": "0x2f2ff15d20296b01d0b6bd176f0c1e29644934c0047abf080dae43609a1bbc09e39bafdb000000000000000000000000aeb4a045f2730f7794886dccf527202d61aa11b9",
        "nonce": "0xce",
        "chainId": "0x14a34"
      },
      "additionalContracts": [],
      "isFixedGasLimit": false
    },
    {
      "hash": "0x40e2db7848f159b3ac925e5a0069e4f733bf494b3284d77d4b9d456a496c62a2",
      "transactionType": "CALL",
      "contractName": null,
      "contractAddress": "0xade2ba8068b27fae0da07dee0bf3a01f186277e0",
      "function": "grantRole(bytes32,address)",
      "arguments": [
        "0x8cc50482b9dd9d6707d74a03ebcb0f97d9c485de72fd3b383ee0a1a434285f23",
        "0xAEB4a045F2730f7794886dccf527202D61Aa11b9"
      ],
      "transaction": {
        "from": "0xaeb4a045f2730f7794886dccf527202d61aa11b9",
        "to": "0xade2ba8068b27fae0da07dee0bf3a01f186277e0",
        "gas": "0x1334e",
        "value": "0x0",
        "input": "0x2f2ff15d8cc50482b9dd9d6707d74a03ebcb0f97d9c485de72fd3b383ee0a1a434285f23000000000000000000000000aeb4a045f2730f7794886dccf527202d61aa11b9",
        "nonce": "0xcf",
        "chainId": "0x14a34"
      },
      "additionalContracts": [],
      "isFixedGasLimit": false
    },
    {
      "hash": "0xd1c2b8c3b357e00c35a48d090e88b909a9a071abdd782ce1dc5b9ec3f4dceaea",
      "transactionType": "CALL",
      "contractName": null,
      "contractAddress": "0xade2ba8068b27fae0da07dee0bf3a01f186277e0",
      "function": "multicall(bytes[])",
      "arguments": [
        "[0xbff5b2e3000000000000000000000000000000000000000000000000000000000000004000000000000000000000000000000000000000000000000000000000000000a00000000000000000000000000000000000000000000000000000000000000002000000000000000000000000000000000000000000000000000000000000000000000000000000000000000000000000000000000000000000000000000000010000000000000000000000000000000000000000000000000000000000000002000000000000000000000000000000000000000000000000000000000000005a0000000000000000000000000000000000000000000000000000000000000000000000000000000000000000000000000000000000000000000000000000000a000000000000000000000000000000000000000000000000000000000000000000000000000000000000000000000000000000000000000000000000000000000000000000000000000000000000000000000000000000000000000000000064, 0x76e8651b000000000000000000000000000000000000000000000000000000000000004000000000000000000000000000000000000000000000000000000000000000a00000000000000000000000000000000000000000000000000000000000000002000000000000000000000000000000000000000000000000000000000000000000000000000000000000000000000000000000000000000000000000000000010000000000000000000000000000000000000000000000000000000000000002000000000000000000000000000000000000000000000000000000000000005a0000000000000000000000000000000000000000000000000000000000000000000000000000000000000000000000000000000000000000000000000000000a0000000000000000000000000000000000000000000000000000000000000000000000000000000000000000000000000000000000000000000000000000005a000000000000000000000000000000000000000000000000000000000000000a, 0xad36b68a000000000000000000000000aa8ff530b040a36eaf29cf161f79b44f4e76d254000000000000000000000000000000000000000000000000000000000000001400000000000000000000000000000000000000000000000000000000009896800000000000000000000000000000000000000000000000000000000000000001, 0x6b793add000000000000000000000000aa8ff530b040a36eaf29cf161f79b44f4e76d2540000000000000000000000000000000000000000000000000000000000000014000000000000000000000000000000000000000000000000000000000007a1200000000000000000000000000000000000000000000000000000000000000001, 0x8d64e1dd000000000000000000000000aa8ff530b040a36eaf29cf161f79b44f4e76d254000000000000000000000000000000000000000000000000000000000000001400000000000000000000000000000000000000000000000000000000000f42400000000000000000000000000000000000000000000000000000000000000001, 0xa0cce639000000000000000000000000aa8ff530b040a36eaf29cf161f79b44f4e76d2540000000000000000000000000000000000000000000000000000000000000004, 0xaaa24b20000000000000000000000000000000000000000000000000000000000000000a00000000000000000000000000000000000000000000000000000000000000280000000000000000000000000000000000000000000000000000000000000032, 0x448952c4000000000000000000000000000000000000000000000000000000000000000a00000000000000000000000000000000000000000000000000000000000000280000000000000000000000000000000000000000000000000000000000000028000000000000000000000000000000000000000000000000000000000000000a, 0x85272709000000000000000000000000000000000000000000000000000000000000000a000000000000000000000000000000000000000000000000000000000000000500000000000000000000000000000000000000000000000000000000000000010000000000000000000000000000000000000000000000000000000000000004]"
      ],
      "transaction": {
        "from": "0xaeb4a045f2730f7794886dccf527202d61aa11b9",
        "to": "0xade2ba8068b27fae0da07dee0bf3a01f186277e0",
        "gas": "0x12355d",
        "value": "0x0",
        "input": "0xac9650d800000000000000000000000000000000000000000000000000000000000000200000000000000000000000000000000000000000000000000000000000000009000000000000000000000000000000000000000000000000000000000000012000000000000000000000000000000000000000000000000000000000000002e000000000000000000000000000000000000000000000000000000000000004a00000000000000000000000000000000000000000000000000000000000000560000000000000000000000000000000000000000000000000000000000000062000000000000000000000000000000000000000000000000000000000000006e00000000000000000000000000000000000000000000000000000000000000760000000000000000000000000000000000000000000000000000000000000080000000000000000000000000000000000000000000000000000000000000008c00000000000000000000000000000000000000000000000000000000000000184bff5b2e3000000000000000000000000000000000000000000000000000000000000004000000000000000000000000000000000000000000000000000000000000000a00000000000000000000000000000000000000000000000000000000000000002000000000000000000000000000000000000000000000000000000000000000000000000000000000000000000000000000000000000000000000000000000010000000000000000000000000000000000000000000000000000000000000002000000000000000000000000000000000000000000000000000000000000005a0000000000000000000000000000000000000000000000000000000000000000000000000000000000000000000000000000000000000000000000000000000a00000000000000000000000000000000000000000000000000000000000000000000000000000000000000000000000000000000000000000000000000000000000000000000000000000000000000000000000000000000000000000000006400000000000000000000000000000000000000000000000000000000000000000000000000000000000000000000000000000000000000000000018476e8651b000000000000000000000000000000000000000000000000000000000000004000000000000000000000000000000000000000000000000000000000000000a00000000000000000000000000000000000000000000000000000000000000002000000000000000000000000000000000000000000000000000000000000000000000000000000000000000000000000000000000000000000000000000000010000000000000000000000000000000000000000000000000000000000000002000000000000000000000000000000000000000000000000000000000000005a0000000000000000000000000000000000000000000000000000000000000000000000000000000000000000000000000000000000000000000000000000000a0000000000000000000000000000000000000000000000000000000000000000000000000000000000000000000000000000000000000000000000000000005a000000000000000000000000000000000000000000000000000000000000000a000000000000000000000000000000000000000000000000000000000000000000000000000000000000000000000000000000000000000000000084ad36b68a000000000000000000000000aa8ff530b040a36eaf29cf161f79b44f4e76d2540000000000000000000000000000000000000000000000000000000000000014000000000000000000000000000000000000000000000000000000000098968000000000000000000000000000000000000000000000000000000000000000010000000000000000000000000000000000000000000000000000000000000000000000000000000000000000000000000000000000000000000000846b793add000000000000000000000000aa8ff530b040a36eaf29cf161f79b44f4e76d2540000000000000000000000000000000000000000000000000000000000000014000000000000000000000000000000000000000000000000000000000007a12000000000000000000000000000000000000000000000000000000000000000010000000000000000000000000000000000000000000000000000000000000000000000000000000000000000000000000000000000000000000000848d64e1dd000000000000000000000000aa8ff530b040a36eaf29cf161f79b44f4e76d254000000000000000000000000000000000000000000000000000000000000001400000000000000000000000000000000000000000000000000000000000f42400000000000000000000000000000000000000000000000000000000000000001000000000000000000000000000000000000000000000000000000000000000000000000000000000000000000000000000000000000000000000044a0cce639000000000000000000000000aa8ff530b040a36eaf29cf161f79b44f4e76d2540000000000000000000000000000000000000000000000000000000000000004000000000000000000000000000000000000000000000000000000000000000000000000000000000000000000000000000000000000000000000064aaa24b20000000000000000000000000000000000000000000000000000000000000000a00000000000000000000000000000000000000000000000000000000000000280000000000000000000000000000000000000000000000000000000000000032000000000000000000000000000000000000000000000000000000000000000000000000000000000000000000000000000000000000000000000084448952c4000000000000000000000000000000000000000000000000000000000000000a00000000000000000000000000000000000000000000000000000000000000280000000000000000000000000000000000000000000000000000000000000028000000000000000000000000000000000000000000000000000000000000000a00000000000000000000000000000000000000000000000000000000000000000000000000000000000000000000000000000000000000000000008485272709000000000000000000000000000000000000000000000000000000000000000a00000000000000000000000000000000000000000000000000000000000000050000000000000000000000000000000000000000000000000000000000000001000000000000000000000000000000000000000000000000000000000000000400000000000000000000000000000000000000000000000000000000",
        "nonce": "0xd0",
        "chainId": "0x14a34"
      },
      "additionalContracts": [],
      "isFixedGasLimit": false
    },
    {
      "hash": "0x92345f463d3da8d696e2e7d676c390dff197ac3f1a0a76876ea4cdfbd19e5c6c",
      "transactionType": "CALL",
      "contractName": null,
      "contractAddress": "0xade2ba8068b27fae0da07dee0bf3a01f186277e0",
      "function": "setFinance(address)",
      "arguments": [
        "0xAEB4a045F2730f7794886dccf527202D61Aa11b9"
      ],
      "transaction": {
        "from": "0xaeb4a045f2730f7794886dccf527202d61aa11b9",
        "to": "0xade2ba8068b27fae0da07dee0bf3a01f186277e0",
        "gas": "0xc2a8",
        "value": "0x0",
        "input": "0x9b8d3064000000000000000000000000aeb4a045f2730f7794886dccf527202d61aa11b9",
        "nonce": "0xd1",
        "chainId": "0x14a34"
      },
      "additionalContracts": [],
      "isFixedGasLimit": false
    }
  ],
  "receipts": [
    {
      "status": "0x1",
      "cumulativeGasUsed": "0x12271c",
      "logs": [
        {
          "address": "0xade2ba8068b27fae0da07dee0bf3a01f186277e0",
          "topics": [
            "0x2f8788117e7eff1d82e926ec794901d17c78024a50270940304540a733656f0d",
            "0x1ee98a5ea8740dd552db2a55b05f1fb3b0b10ffec53d6239805ee2da549061ca",
            "0x000000000000000000000000aeb4a045f2730f7794886dccf527202d61aa11b9",
            "0x000000000000000000000000aeb4a045f2730f7794886dccf527202d61aa11b9"
          ],
          "data": "0x",
          "blockHash": "0x51278931a8c50f21ec495841c194c42a365ee6162d03a42e40313fcc3213db35",
          "blockNumber": "0xaf9570",
          "transactionHash": "0xf19f06934920c11d0bd8b559b1aa7cd0de1e635ac457d380b6815818daf7848d",
          "transactionIndex": "0x5",
          "logIndex": "0x17",
          "removed": false
        }
      ],
      "logsBloom": "0x00000004000000000000000000000000000000000000000000000000000000000000000000000000000000000000000000000000000000000000000000000000000000000000000000000000000000000000000000000000000000000000000000000000000000000000001100000000000000000000000000000000000000000000000000000000000000000000000000000000000000000000000000000000100000000000000000000000000000000000000000000000001000000000200000000000000010000000000000000008000000000000000100000000000000000000000000000000000000000010000000000000400001000000000000000000",
      "type": "0x2",
      "transactionHash": "0xf19f06934920c11d0bd8b559b1aa7cd0de1e635ac457d380b6815818daf7848d",
      "transactionIndex": "0x5",
      "blockHash": "0x51278931a8c50f21ec495841c194c42a365ee6162d03a42e40313fcc3213db35",
      "blockNumber": "0xaf9570",
      "gasUsed": "0xde7d",
      "effectiveGasPrice": "0xf4398",
      "from": "0xaeb4a045f2730f7794886dccf527202d61aa11b9",
      "to": "0xade2ba8068b27fae0da07dee0bf3a01f186277e0",
      "contractAddress": null,
      "l1BaseFeeScalar": "0x44d",
      "l1BlobBaseFee": "0x1",
      "l1BlobBaseFeeScalar": "0xa118b",
      "l1Fee": "0x43c8e3",
      "l1GasPrice": "0x23e95a",
      "l1GasUsed": "0x6b2"
    },
    {
      "status": "0x1",
      "cumulativeGasUsed": "0x130599",
      "logs": [
        {
          "address": "0xade2ba8068b27fae0da07dee0bf3a01f186277e0",
          "topics": [
            "0x2f8788117e7eff1d82e926ec794901d17c78024a50270940304540a733656f0d",
            "0x20296b01d0b6bd176f0c1e29644934c0047abf080dae43609a1bbc09e39bafdb",
            "0x000000000000000000000000aeb4a045f2730f7794886dccf527202d61aa11b9",
            "0x000000000000000000000000aeb4a045f2730f7794886dccf527202d61aa11b9"
          ],
          "data": "0x",
          "blockHash": "0x51278931a8c50f21ec495841c194c42a365ee6162d03a42e40313fcc3213db35",
          "blockNumber": "0xaf9570",
          "transactionHash": "0x6d35ee06cf4c9f57ad0d799a6ba4f9bbbd53f40c660d601eca7c0e608fbba1b8",
          "transactionIndex": "0x6",
          "logIndex": "0x18",
          "removed": false
        }
      ],
      "logsBloom": "0x00000004000000000000000000000000000000000000000000000000000000000000000000000000000000000000000000000000000000000000000000000000000000000000000000000000000000000000000000000000000000000000000000000000000000000000000100000010000000400000000000000000000000000000000000000000000000000000000000000000000000000000000000000000000000008000000000000000000000000000000000000000001000000000000000000000000010000000000000000008000000000000000100000000000000000000000000000000000000000010000000000000400001000000000000000000",
      "type": "0x2",
      "transactionHash": "0x6d35ee06cf4c9f57ad0d799a6ba4f9bbbd53f40c660d601eca7c0e608fbba1b8",
      "transactionIndex": "0x6",
      "blockHash": "0x51278931a8c50f21ec495841c194c42a365ee6162d03a42e40313fcc3213db35",
      "blockNumber": "0xaf9570",
      "gasUsed": "0xde7d",
      "effectiveGasPrice": "0xf4398",
      "from": "0xaeb4a045f2730f7794886dccf527202d61aa11b9",
      "to": "0xade2ba8068b27fae0da07dee0bf3a01f186277e0",
      "contractAddress": null,
      "l1BaseFeeScalar": "0x44d",
      "l1BlobBaseFee": "0x1",
      "l1BlobBaseFeeScalar": "0xa118b",
      "l1Fee": "0x43c8e3",
      "l1GasPrice": "0x23e95a",
      "l1GasUsed": "0x6b2"
    },
    {
      "status": "0x1",
      "cumulativeGasUsed": "0x13e416",
      "logs": [
        {
          "address": "0xade2ba8068b27fae0da07dee0bf3a01f186277e0",
          "topics": [
            "0x2f8788117e7eff1d82e926ec794901d17c78024a50270940304540a733656f0d",
            "0x8cc50482b9dd9d6707d74a03ebcb0f97d9c485de72fd3b383ee0a1a434285f23",
            "0x000000000000000000000000aeb4a045f2730f7794886dccf527202d61aa11b9",
            "0x000000000000000000000000aeb4a045f2730f7794886dccf527202d61aa11b9"
          ],
          "data": "0x",
          "blockHash": "0x51278931a8c50f21ec495841c194c42a365ee6162d03a42e40313fcc3213db35",
          "blockNumber": "0xaf9570",
          "transactionHash": "0x40e2db7848f159b3ac925e5a0069e4f733bf494b3284d77d4b9d456a496c62a2",
          "transactionIndex": "0x7",
          "logIndex": "0x19",
          "removed": false
        }
      ],
      "logsBloom": "0x00000004000000000000000000000000000000000000000000000000000000000000000000000000000000000000000000002000000000000000000000000000000000000000000000000000000000000000000000000000000000000000000000000000000000000000000100000000000000000000000000000000000000000000000010000000000000000000000080000000000000000000000000000000000000000000000000000000000000000000000000000000001000000000000000000000000010000000000000000008000000000000000100000000000000000000000000000000000000000010000000000000400001000000000000000000",
      "type": "0x2",
      "transactionHash": "0x40e2db7848f159b3ac925e5a0069e4f733bf494b3284d77d4b9d456a496c62a2",
      "transactionIndex": "0x7",
      "blockHash": "0x51278931a8c50f21ec495841c194c42a365ee6162d03a42e40313fcc3213db35",
      "blockNumber": "0xaf9570",
      "gasUsed": "0xde7d",
      "effectiveGasPrice": "0xf4398",
      "from": "0xaeb4a045f2730f7794886dccf527202d61aa11b9",
      "to": "0xade2ba8068b27fae0da07dee0bf3a01f186277e0",
      "contractAddress": null,
      "l1BaseFeeScalar": "0x44d",
      "l1BlobBaseFee": "0x1",
      "l1BlobBaseFeeScalar": "0xa118b",
      "l1Fee": "0x43c8e3",
      "l1GasPrice": "0x23e95a",
      "l1GasUsed": "0x6b2"
    },
    {
      "status": "0x1",
      "cumulativeGasUsed": "0x205758",
      "logs": [
        {
          "address": "0xade2ba8068b27fae0da07dee0bf3a01f186277e0",
          "topics": [
            "0xcade4b6152ca69e141a2dd85dc739753d985142f843d0ee777cc3ff93afab551",
            "0x0000000000000000000000000000000000000000000000000000000000000000"
          ],
          "data": "0x000000000000000000000000000000000000000000000000000000000000005a0000000000000000000000000000000000000000000000000000000000000000000000000000000000000000000000000000000000000000000000000000000a000000000000000000000000000000000000000000000000000000000000000000000000000000000000000000000000000000000000000000000000000000000000000000000000000000000000000000000000000000000000000000000064",
          "blockHash": "0x51278931a8c50f21ec495841c194c42a365ee6162d03a42e40313fcc3213db35",
          "blockNumber": "0xaf9570",
          "transactionHash": "0xd1c2b8c3b357e00c35a48d090e88b909a9a071abdd782ce1dc5b9ec3f4dceaea",
          "transactionIndex": "0x8",
          "logIndex": "0x1a",
          "removed": false
        },
        {
          "address": "0xade2ba8068b27fae0da07dee0bf3a01f186277e0",
          "topics": [
            "0xcade4b6152ca69e141a2dd85dc739753d985142f843d0ee777cc3ff93afab551",
            "0x0000000000000000000000000000000000000000000000000000000000000001"
          ],
          "data": "0x000000000000000000000000000000000000000000000000000000000000005a0000000000000000000000000000000000000000000000000000000000000000000000000000000000000000000000000000000000000000000000000000000a0000000000000000000000000000000000000000000000000000000000000000000000000000000000000000000000000000000000000000000000000000005a000000000000000000000000000000000000000000000000000000000000000a",
          "blockHash": "0x51278931a8c50f21ec495841c194c42a365ee6162d03a42e40313fcc3213db35",
          "blockNumber": "0xaf9570",
          "transactionHash": "0xd1c2b8c3b357e00c35a48d090e88b909a9a071abdd782ce1dc5b9ec3f4dceaea",
          "transactionIndex": "0x8",
          "logIndex": "0x1b",
          "removed": false
        },
        {
          "address": "0xade2ba8068b27fae0da07dee0bf3a01f186277e0",
          "topics": [
            "0x6639b38143d225e4c8b69552202e164358b7c8509aa3ec437099682c92f0b1b2"
          ],
          "data": "0x000000000000000000000000aa8ff530b040a36eaf29cf161f79b44f4e76d254000000000000000000000000000000000000000000000000000000000000001400000000000000000000000000000000000000000000000000000000009896800000000000000000000000000000000000000000000000000000000000000001",
          "blockHash": "0x51278931a8c50f21ec495841c194c42a365ee6162d03a42e40313fcc3213db35",
          "blockNumber": "0xaf9570",
          "transactionHash": "0xd1c2b8c3b357e00c35a48d090e88b909a9a071abdd782ce1dc5b9ec3f4dceaea",
          "transactionIndex": "0x8",
          "logIndex": "0x1c",
          "removed": false
        },
        {
          "address": "0xade2ba8068b27fae0da07dee0bf3a01f186277e0",
          "topics": [
            "0x1d530d1d906015cb9b616a8a41f22a58ba09597e1290615ab41aa0b4327430a7"
          ],
          "data": "0x000000000000000000000000aa8ff530b040a36eaf29cf161f79b44f4e76d2540000000000000000000000000000000000000000000000000000000000000014000000000000000000000000000000000000000000000000000000000007a12000000000000000000000000000000000000000000000000000000000000000010000000000000000000000000000000000000000000000000000000000000001",
          "blockHash": "0x51278931a8c50f21ec495841c194c42a365ee6162d03a42e40313fcc3213db35",
          "blockNumber": "0xaf9570",
          "transactionHash": "0xd1c2b8c3b357e00c35a48d090e88b909a9a071abdd782ce1dc5b9ec3f4dceaea",
          "transactionIndex": "0x8",
          "logIndex": "0x1d",
          "removed": false
        },
        {
          "address": "0xade2ba8068b27fae0da07dee0bf3a01f186277e0",
          "topics": [
            "0x1d530d1d906015cb9b616a8a41f22a58ba09597e1290615ab41aa0b4327430a7"
          ],
          "data": "0x000000000000000000000000aa8ff530b040a36eaf29cf161f79b44f4e76d254000000000000000000000000000000000000000000000000000000000000001400000000000000000000000000000000000000000000000000000000000f424000000000000000000000000000000000000000000000000000000000000000010000000000000000000000000000000000000000000000000000000000000000",
          "blockHash": "0x51278931a8c50f21ec495841c194c42a365ee6162d03a42e40313fcc3213db35",
          "blockNumber": "0xaf9570",
          "transactionHash": "0xd1c2b8c3b357e00c35a48d090e88b909a9a071abdd782ce1dc5b9ec3f4dceaea",
          "transactionIndex": "0x8",
          "logIndex": "0x1e",
          "removed": false
        },
        {
          "address": "0xade2ba8068b27fae0da07dee0bf3a01f186277e0",
          "topics": [
            "0x447d65d3acb07f57b425fd2c8b0b4fd3142024f46ee51834ccb3d0ee6fcc25cb",
            "0x000000000000000000000000aa8ff530b040a36eaf29cf161f79b44f4e76d254"
          ],
          "data": "0x000000000000000000000000000000000000000000000000000000000000000400000000000000000000000000000000000000000000000000000000667289c0",
          "blockHash": "0x51278931a8c50f21ec495841c194c42a365ee6162d03a42e40313fcc3213db35",
          "blockNumber": "0xaf9570",
          "transactionHash": "0xd1c2b8c3b357e00c35a48d090e88b909a9a071abdd782ce1dc5b9ec3f4dceaea",
          "transactionIndex": "0x8",
          "logIndex": "0x1f",
          "removed": false
        },
        {
          "address": "0xade2ba8068b27fae0da07dee0bf3a01f186277e0",
          "topics": [
            "0xb1db2726f02889008e522f02e0eb4725d202f971744084de989859c001fc3246"
          ],
          "data": "0x000000000000000000000000000000000000000000000000000000000000000a0000000000000000000000000000000000000000000000000000000000000028000000000000000000000000000000000000000000000000000000000000000000000000000000000000000000000000000000000000000000000000000000320000000000000000000000000000000000000000000000000000000000000001",
          "blockHash": "0x51278931a8c50f21ec495841c194c42a365ee6162d03a42e40313fcc3213db35",
          "blockNumber": "0xaf9570",
          "transactionHash": "0xd1c2b8c3b357e00c35a48d090e88b909a9a071abdd782ce1dc5b9ec3f4dceaea",
          "transactionIndex": "0x8",
          "logIndex": "0x20",
          "removed": false
        },
        {
          "address": "0xade2ba8068b27fae0da07dee0bf3a01f186277e0",
          "topics": [
            "0xb1db2726f02889008e522f02e0eb4725d202f971744084de989859c001fc3246"
          ],
          "data": "0x000000000000000000000000000000000000000000000000000000000000000a00000000000000000000000000000000000000000000000000000000000000280000000000000000000000000000000000000000000000000000000000000028000000000000000000000000000000000000000000000000000000000000000a0000000000000000000000000000000000000000000000000000000000000000",
          "blockHash": "0x51278931a8c50f21ec495841c194c42a365ee6162d03a42e40313fcc3213db35",
          "blockNumber": "0xaf9570",
          "transactionHash": "0xd1c2b8c3b357e00c35a48d090e88b909a9a071abdd782ce1dc5b9ec3f4dceaea",
          "transactionIndex": "0x8",
          "logIndex": "0x21",
          "removed": false
        },
        {
          "address": "0xade2ba8068b27fae0da07dee0bf3a01f186277e0",
          "topics": [
            "0x85beb41b69c0bc3d785869482d44d1c9286e18ed612e8b1e943d4182fe80828e"
          ],
          "data": "0x000000000000000000000000000000000000000000000000000000000000000a000000000000000000000000000000000000000000000000000000000000000500000000000000000000000000000000000000000000000000000000000000010000000000000000000000000000000000000000000000000000000000000004",
          "blockHash": "0x51278931a8c50f21ec495841c194c42a365ee6162d03a42e40313fcc3213db35",
          "blockNumber": "0xaf9570",
          "transactionHash": "0xd1c2b8c3b357e00c35a48d090e88b909a9a071abdd782ce1dc5b9ec3f4dceaea",
          "transactionIndex": "0x8",
          "logIndex": "0x22",
          "removed": false
        }
      ],
      "logsBloom": "0x000000000000000000000000000000000000000000040000000000000800080000000000000000000000000000000020000000000000000000000001000c0040400000000000000000000000000000000000000000040000000000000000000001000000020000000000000000000800000000000000000000000001000000000000000000000000000000000000000080000400000000000000000000020000000000000020800000000000000000000000000000000000000000000000000000000000000010000000000000000008040000000000000000000000000060000000000000000000000100000011000018000000800000000000000000000000",
      "type": "0x2",
      "transactionHash": "0xd1c2b8c3b357e00c35a48d090e88b909a9a071abdd782ce1dc5b9ec3f4dceaea",
      "transactionIndex": "0x8",
      "blockHash": "0x51278931a8c50f21ec495841c194c42a365ee6162d03a42e40313fcc3213db35",
      "blockNumber": "0xaf9570",
      "gasUsed": "0xc7342",
      "effectiveGasPrice": "0xf4398",
      "from": "0xaeb4a045f2730f7794886dccf527202d61aa11b9",
      "to": "0xade2ba8068b27fae0da07dee0bf3a01f186277e0",
      "contractAddress": null,
      "l1BaseFeeScalar": "0x44d",
      "l1BlobBaseFee": "0x1",
      "l1BlobBaseFeeScalar": "0xa118b",
      "l1Fee": "0xdd402c",
      "l1GasPrice": "0x23e95a",
      "l1GasUsed": "0x15db"
    },
    {
      "status": "0x1",
      "cumulativeGasUsed": "0x20dc72",
      "logs": [
        {
          "address": "0xade2ba8068b27fae0da07dee0bf3a01f186277e0",
          "topics": [
            "0x4e231b1687b89ee5d708fce40043f71d15e7a57b46543c1aa46861badbc0ffc5",
            "0x000000000000000000000000aeb4a045f2730f7794886dccf527202d61aa11b9",
            "0x000000000000000000000000aeb4a045f2730f7794886dccf527202d61aa11b9",
            "0x000000000000000000000000aeb4a045f2730f7794886dccf527202d61aa11b9"
          ],
          "data": "0x00000000000000000000000000000000000000000000000000000000667289c0",
          "blockHash": "0x51278931a8c50f21ec495841c194c42a365ee6162d03a42e40313fcc3213db35",
          "blockNumber": "0xaf9570",
          "transactionHash": "0x92345f463d3da8d696e2e7d676c390dff197ac3f1a0a76876ea4cdfbd19e5c6c",
          "transactionIndex": "0x9",
          "logIndex": "0x23",
          "removed": false
        }
      ],
      "logsBloom": "0x0000000000000000000000000000000000000000000000000000000000000000000000000000000000000000000000000000000000000000000000000000000000000000000000000000000000000000000000000000000000000000000000000000000000000000000000010000000000000000000000000000000000000000000000000000000000000000000000000000000000000000000000000000000000000000000000000000000000000000000000000000000000000000000000000000000020001000000000000000000c000000000000000000000000000000000000000000000000000400000010000000000000400001000000000000000000",
      "type": "0x2",
      "transactionHash": "0x92345f463d3da8d696e2e7d676c390dff197ac3f1a0a76876ea4cdfbd19e5c6c",
      "transactionIndex": "0x9",
      "blockHash": "0x51278931a8c50f21ec495841c194c42a365ee6162d03a42e40313fcc3213db35",
      "blockNumber": "0xaf9570",
      "gasUsed": "0x851a",
      "effectiveGasPrice": "0xf4398",
      "from": "0xaeb4a045f2730f7794886dccf527202d61aa11b9",
      "to": "0xade2ba8068b27fae0da07dee0bf3a01f186277e0",
      "contractAddress": null,
      "l1BaseFeeScalar": "0x44d",
      "l1BlobBaseFee": "0x1",
      "l1BlobBaseFeeScalar": "0xa118b",
      "l1Fee": "0x3f4344",
      "l1GasPrice": "0x23e95a",
      "l1GasUsed": "0x640"
    }
  ],
  "libraries": [],
  "pending": [],
  "returns": {},
  "timestamp": 1718782407,
  "chain": 84532,
  "commit": "a209400"
}