{
  "transactions": [
    {
      "hash": "0xebb6112705171c051486194c2804bfd383e07c59e534fd88f55d1b1405e8e1f7",
      "transactionType": "CREATE",
      "contractName": "ZeekRouter",
      "contractAddress": "0xade2ba8068b27fae0da07dee0bf3a01f186277e0",
      "function": null,
      "arguments": [
        "0xAEB4a045F2730f7794886dccf527202D61Aa11b9"
      ],
      "transaction": {
        "from": "0xaeb4a045f2730f7794886dccf527202d61aa11b9",
        "gas": "0x1eab62",
        "value": "0x0",
        "input": "0x60806040523480156200001157600080fd5b5060405162001bb638038062001bb68339810160408190526200003491620000f5565b6200003f8162000046565b5062000127565b7fcb4949e4b7cf9c1f3e77fec6e9c7ad594c8cd7f9388bcf7fb823e8fe275cb1346001600160a01b0382166200008f576040516359ba02d360e01b815260040160405180910390fd5b8054604080516001600160a01b03928316815291841660208301527f7e644d79422f17c01e4894b5f4f588d331ebfa28653d42ae832dc59e38c9798f910160405180910390a180546001600160a01b0319166001600160a01b0392909216919091179055565b6000602082840312156200010857600080fd5b81516001600160a01b03811681146200012057600080fd5b9392505050565b611a7f80620001376000396000f3fe6080604052600436106100e85760003560e01c80638c3d73011161008a578063d046815611610059578063d046815614610285578063f3d3d7971461029a578063f5e130e7146102c7578063f9f47f24146102dc576100e8565b80638c3d7301146102035780638f28397014610218578063ac9650d814610238578063c2d52f8f14610265576100e8565b80634e129243116100c65780634e12924314610176578063678780a8146101ae5780636e9960c3146101ce5780637aaaae8b146101e3576100e8565b806301ffc9a7146100f25780630218cac1146101275780631faee24f14610154575b6100f06102fc565b005b3480156100fe57600080fd5b5061011261010d3660046113ac565b61030e565b60405190151581526020015b60405180910390f35b34801561013357600080fd5b506101476101423660046113de565b6103ed565b60405161011e91906113f9565b34801561016057600080fd5b506101696104db565b60405161011e9190611497565b34801561018257600080fd5b506101966101913660046113ac565b610699565b6040516001600160a01b03909116815260200161011e565b3480156101ba57600080fd5b506100f06101c936600461152f565b6106d3565b3480156101da57600080fd5b5061019661071b565b3480156101ef57600080fd5b506100f06101fe366004611622565b610734565b34801561020f57600080fd5b506100f0610778565b34801561022457600080fd5b506100f06102333660046113de565b610809565b34801561024457600080fd5b50610258610253366004611702565b6108b1565b60405161011e9190611777565b34801561027157600080fd5b506101966102803660046113ac565b61099c565b34801561029157600080fd5b506101966109a7565b3480156102a657600080fd5b506102af6109c3565b6040516001600160601b03909116815260200161011e565b3480156102d357600080fd5b506100f06109e6565b3480156102e857600080fd5b506100f06102f7366004611622565b610a70565b61030c610307610ab0565b610af1565b565b60006001600160e01b03198216631ddd2b0360e11b148061033f57506301ffc9a760e01b6001600160e01b03198316145b1561034c57506001919050565b6000610356610ab0565b90506001600160a01b038116156103de576040516301ffc9a760e01b81526001600160e01b0319841660048201526001600160a01b038216906301ffc9a790602401602060405180830381865afa1580156103b5573d6000803e3d6000fd5b505050506040513d601f19601f820116820180604052508101906103d991906117db565b6103e1565b60005b9392505050565b919050565b606060006103f9610b1a565b6001600160a01b038416600090815260038201602052604081209192509061042090610b3e565b90508067ffffffffffffffff81111561043b5761043b6115b2565b604051908082528060200260200182016040528015610464578160200160208202803683370190505b50925060005b818110156104d3576001600160a01b038516600090815260038401602052604090206104969082610b48565b8482815181106104a8576104a86117fd565b6001600160e01b0319909216602092830291909101909101526104cc600182611829565b905061046a565b505050919050565b606060006104e7610b1a565b90506001810160006104f882610b3e565b90508067ffffffffffffffff811115610513576105136115b2565b60405190808252806020026020018201604052801561056357816020015b604080516060808201835260008083526020830191909152918101919091528152602001906001900390816105315790505b50935060005b81811015610692576004840160006105818584610b48565b6001600160e01b031990811682526020808301939093526040918201600020825160608101909352805460e01b909116825260018101805492939192918401916105ca9061183c565b80601f01602080910402602001604051908101604052809291908181526020018280546105f69061183c565b80156106435780601f1061061857610100808354040283529160200191610643565b820191906000526020600020905b81548152906001019060200180831161062657829003601f168201915b5050509183525050600291909101546001600160a01b03166020909101528551869083908110610675576106756117fd565b602090810291909101015261068b600182611829565b9050610569565b5050505090565b6000806106a4610b1a565b6001600160e01b031990931660009081526004909301602052505060409020600201546001600160a01b031690565b60006106dd610b1a565b80549091506001600160a01b0316331461070a576040516359ba02d360e01b815260040160405180910390fd5b610715848484610b54565b50505050565b6000610725610b1a565b546001600160a01b0316919050565b600061073e610b1a565b80549091506001600160a01b0316331461076b576040516359ba02d360e01b815260040160405180910390fd5b61077482610cc4565b5050565b6000610782610b1a565b60058101549091506001600160a01b0316331415806107ca575060058101546107be90600160a01b90046001600160601b031662015180611876565b6001600160601b031642115b156107e8576040516359ba02d360e01b815260040160405180910390fd5b60058101546107ff906001600160a01b0316610e50565b6000600590910155565b6000610813610b1a565b80549091506001600160a01b03163314610840576040516359ba02d360e01b815260040160405180910390fd5b600061084a610b1a565b6001600160601b0342908116600160a01b026001600160a01b03861690811760058401556040805191825260208201929092529192507fdff178ebb2279491077ea123f009769d6d541aacd41a890ec61d81fa22bb800c91015b60405180910390a1505050565b60608167ffffffffffffffff8111156108cc576108cc6115b2565b6040519080825280602002602001820160405280156108ff57816020015b60608152602001906001900390816108ea5790505b50905060005b828110156109945761096f30858584818110610923576109236117fd565b90506020028101906109359190611896565b8080601f016020809104026020016040519081016040528093929190818152602001838380828437600092019190915250610ee992505050565b828281518110610981576109816117fd565b6020908102919091010152600101610905565b505b92915050565b600061099682610699565b60006109b1610b1a565b600501546001600160a01b0316919050565b60006109cd610b1a565b60050154600160a01b90046001600160601b0316919050565b60006109f0610b1a565b80549091506001600160a01b03163314610a1d576040516359ba02d360e01b815260040160405180910390fd5b6000610a27610b1a565b60058101805460009091556040516001600160a01b039091168082529192507fe2e622963376760e51863f60e7a27a5ca113dd3ec08b2fe6bed6a184982cec40906020016108a4565b6000610a7a610b1a565b80549091506001600160a01b03163314610aa7576040516359ba02d360e01b815260040160405180910390fd5b61077482610f5f565b600080610ac86000356001600160e01b031916610699565b90506001600160a01b0381166103e85760405163466d7fef60e01b815260040160405180910390fd5b3660008037600080366000845af43d6000803e808015610b10573d6000f35b3d6000fd5b505050565b7fcb4949e4b7cf9c1f3e77fec6e9c7ad594c8cd7f9388bcf7fb823e8fe275cb13490565b6000610996825490565b60006103e18383611142565b6000610b5e610b1a565b90506000610b6b85610699565b90506001600160a01b038116610b9457604051633f22c79560e01b815260040160405180910390fd5b8383604051602001610ba79291906118e4565b604051602081830303815290604052805190602001206001600160e01b031916856001600160e01b03191614610bf057604051631a43381b60e01b815260040160405180910390fd5b6001600160e01b0319851660009081526004830160205260408120805463ffffffff1916815590610c246001830182611346565b5060020180546001600160a01b0319169055610c4d600183016001600160e01b0319871661116c565b506001600160a01b03811660009081526003830160205260409020610c7c906001600160e01b0319871661116c565b506040516001600160a01b038216906001600160e01b03198716907fb64f342b43109828889941f7ca368bafe02178e0ef5cee3d51f99d9a74977c6890600090a35050505050565b6000610cce610b1a565b8251909150610ceb9060018301906001600160e01b031916611178565b610d0857604051633ccabdcf60e21b815260040160405180910390fd5b602080830151604051610d1b92016118f4565b604051602081830303815290604052805190602001206001600160e01b03191682600001516001600160e01b03191614610d6857604051631a43381b60e01b815260040160405180910390fd5b81516001600160e01b031916600090815260048201602090815260409091208351815463ffffffff191660e09190911c178155908301518391906001820190610db19082611960565b5060409182015160029190910180546001600160a01b0319166001600160a01b0392831617905583518483015190911660009081526003840160205291909120610e04916001600160e01b031916611178565b50604080830151835191516001600160a01b03909116916001600160e01b031916907fb8d3168400543cb1f93defbb510faf4f210a8165083daa84f56c93275659d21b90600090a35050565b6000610e5a610b1a565b90506001600160a01b038216610e83576040516359ba02d360e01b815260040160405180910390fd5b8054604080516001600160a01b03928316815291841660208301527f7e644d79422f17c01e4894b5f4f588d331ebfa28653d42ae832dc59e38c9798f910160405180910390a180546001600160a01b0319166001600160a01b0392909216919091179055565b6060600080846001600160a01b031684604051610f0691906118f4565b600060405180830381855af49150503d8060008114610f41576040519150601f19603f3d011682016040523d82523d6000602084013e610f46565b606091505b5091509150610f56858383611184565b95945050505050565b6000610f6e826000015161099c565b90506001600160a01b038116610f9757604051633f22c79560e01b815260040160405180910390fd5b602080830151604051610faa92016118f4565b604051602081830303815290604052805190602001206001600160e01b03191682600001516001600160e01b03191614610ff757604051631a43381b60e01b815260040160405180910390fd5b6000611001610b1a565b835190915061101e9060018301906001600160e01b031916611178565b5082516001600160e01b031916600090815260048201602090815260409091208451815463ffffffff191660e09190911c1781559084015184919060018201906110689082611960565b5060409182015160029190910180546001600160a01b0319166001600160a01b039283161790558451908416600090815260038401602052919091206110b7916001600160e01b03191661116c565b5082516040808501516001600160a01b0316600090815260038401602052206110e9916001600160e01b031916611178565b5082604001516001600160a01b0316826001600160a01b031684600001516001600160e01b0319167f39b8ab90488766f7b7d5e73f0491c3b8455e0cd2f43963f34997d2222e47e8fe60405160405180910390a4505050565b6000826000018281548110611159576111596117fd565b9060005260206000200154905092915050565b60006103e183836111d8565b60006103e183836112cb565b606082611194576103d98261131a565b81511580156111ab57506001600160a01b0384163b155b1561099457604051639996b31560e01b81526001600160a01b038516600482015260240160405180910390fd5b600081815260018301602052604081205480156112c15760006111fc600183611a20565b855490915060009061121090600190611a20565b9050808214611275576000866000018281548110611230576112306117fd565b9060005260206000200154905080876000018481548110611253576112536117fd565b6000918252602080832090910192909255918252600188019052604090208390555b855486908061128657611286611a33565b600190038181906000526020600020016000905590558560010160008681526020019081526020016000206000905560019350505050610996565b6000915050610996565b600081815260018301602052604081205461131257508154600181810184556000848152602080822090930184905584548482528286019093526040902091909155610996565b506000610996565b80511561132a5780518082602001fd5b604051630a12f52160e11b815260040160405180910390fd5b50565b5080546113529061183c565b6000825580601f10611362575050565b601f01602090049060005260206000209081019061134391905b80821115611390576000815560010161137c565b5090565b80356001600160e01b0319811681146103e857600080fd5b6000602082840312156113be57600080fd5b6103e182611394565b80356001600160a01b03811681146103e857600080fd5b6000602082840312156113f057600080fd5b6103e1826113c7565b6020808252825182820181905260009190848201906040850190845b8181101561143b5783516001600160e01b03191683529284019291840191600101611415565b50909695505050505050565b60005b8381101561146257818101518382015260200161144a565b50506000910152565b60008151808452611483816020860160208601611447565b601f01601f19169290920160200192915050565b600060208083018184528085518083526040925060408601915060408160051b87010184880160005b8381101561152157888303603f19018552815180516001600160e01b0319168452878101516060898601819052906114fa8287018261146b565b928901516001600160a01b03169589019590955250948701949250908601906001016114c0565b509098975050505050505050565b60008060006040848603121561154457600080fd5b61154d84611394565b9250602084013567ffffffffffffffff8082111561156a57600080fd5b818601915086601f83011261157e57600080fd5b81358181111561158d57600080fd5b87602082850101111561159f57600080fd5b6020830194508093505050509250925092565b634e487b7160e01b600052604160045260246000fd5b6040516060810167ffffffffffffffff811182821017156115eb576115eb6115b2565b60405290565b604051601f8201601f1916810167ffffffffffffffff8111828210171561161a5761161a6115b2565b604052919050565b6000602080838503121561163557600080fd5b823567ffffffffffffffff8082111561164d57600080fd5b908401906060828703121561166157600080fd5b6116696115c8565b61167283611394565b8152838301358281111561168557600080fd5b8301601f8101881361169657600080fd5b8035838111156116a8576116a86115b2565b6116ba601f8201601f191687016115f1565b935080845288868284010111156116d057600080fd5b80868301878601376000868286010152505081848201526116f3604084016113c7565b60408201529695505050505050565b6000806020838503121561171557600080fd5b823567ffffffffffffffff8082111561172d57600080fd5b818501915085601f83011261174157600080fd5b81358181111561175057600080fd5b8660208260051b850101111561176557600080fd5b60209290920196919550909350505050565b600060208083016020845280855180835260408601915060408160051b87010192506020870160005b828110156117ce57603f198886030184526117bc85835161146b565b945092850192908501906001016117a0565b5092979650505050505050565b6000602082840312156117ed57600080fd5b815180151581146103e157600080fd5b634e487b7160e01b600052603260045260246000fd5b634e487b7160e01b600052601160045260246000fd5b8082018082111561099657610996611813565b600181811c9082168061185057607f821691505b60208210810361187057634e487b7160e01b600052602260045260246000fd5b50919050565b6001600160601b0381811683821601908082111561099457610994611813565b6000808335601e198436030181126118ad57600080fd5b83018035915067ffffffffffffffff8211156118c857600080fd5b6020019150368190038213156118dd57600080fd5b9250929050565b8183823760009101908152919050565b60008251611906818460208701611447565b9190910192915050565b601f821115610b15576000816000526020600020601f850160051c810160208610156119395750805b601f850160051c820191505b8181101561195857828155600101611945565b505050505050565b815167ffffffffffffffff81111561197a5761197a6115b2565b61198e81611988845461183c565b84611910565b602080601f8311600181146119c357600084156119ab5750858301515b600019600386901b1c1916600185901b178555611958565b600085815260208120601f198616915b828110156119f2578886015182559484019460019091019084016119d3565b5085821015611a105787850151600019600388901b60f8161c191681555b5050505050600190811b01905550565b8181038181111561099657610996611813565b634e487b7160e01b600052603160045260246000fdfea2646970667358221220403b1ad8b10c5262d470344690024b1ac59bbac5af2b3f87fc9ebc202598860864736f6c63430008170033000000000000000000000000aeb4a045f2730f7794886dccf527202d61aa11b9",
        "nonce": "0xc8",
        "chainId": "0x14a34"
      },
      "additionalContracts": [],
      "isFixedGasLimit": false
    },
    {
      "hash": "0xb776da508a11f81addc3f1fbcfa1c0ccc345acffb38507fc139729cd0c63f7d1",
      "transactionType": "CREATE",
      "contractName": "Governance",
      "contractAddress": "0x3f5bc15173e0463959fdef0dc3fb61d135665dd6",
      "function": null,
      "arguments": null,
      "transaction": {
        "from": "0xaeb4a045f2730f7794886dccf527202d61aa11b9",
        "gas": "0x1edb48",
        "value": "0x0",
        "input": "0x608060405234801561001057600080fd5b50611b2c806100206000396000f3fe608060405234801561001057600080fd5b506004361061012c5760003560e01c806385272709116100ad578063a217fddf11610071578063a217fddf1461027b578063aaa24b2014610283578063ad36b68a14610296578063bff5b2e3146102a9578063d547741f146102bc57600080fd5b8063852727091461021c5780638d64e1dd1461022f57806391d14854146102425780639b8d306414610255578063a0cce6391461026857600080fd5b80634cd88b76116100f45780634cd88b76146101b55780635b61491f146101c85780636b793add146101db57806376e8651b146101ee57806384b0196e1461020157600080fd5b806301ffc9a714610131578063248a9ca3146101595780632f2ff15d1461017a57806336568abe1461018f578063448952c4146101a2575b600080fd5b61014461013f366004611442565b6102cf565b60405190151581526020015b60405180910390f35b61016c610167366004611473565b610306565b604051908152602001610150565b61018d6101883660046114a8565b610328565b005b61018d61019d3660046114a8565b61034a565b61018d6101b03660046114d4565b610382565b61018d6101c33660046115a9565b6103fd565b61018d6101d636600461161d565b61059f565b61018d6101e9366004611647565b61064b565b61018d6101fc36600461168d565b6106c5565b61020961075c565b604051610150979695949392919061179b565b61018d61022a3660046114d4565b610865565b61018d61023d366004611647565b6108ce565b6101446102503660046114a8565b610948565b61018d610263366004611834565b610980565b61018d61027636600461184f565b610a80565b61016c600081565b61018d610291366004611879565b610b1d565b61018d6102a4366004611647565b610b96565b61018d6102b736600461168d565b610c09565b61018d6102ca3660046114a8565b610c34565b60006001600160e01b03198216637965db0b60e01b148061030057506301ffc9a760e01b6001600160e01b03198316145b92915050565b6000908152600080516020611ad7833981519152602052604090206001015490565b61033182610306565b61033a81610c50565b6103448383610c5d565b50505050565b6001600160a01b03811633146103735760405163334bd91960e11b815260040160405180910390fd5b61037d8282610d02565b505050565b600080516020611ab783398151915261039a81610c50565b6103a685858585610d7e565b604080518681526020810186905290810184905260608101839052600060808201527fb1db2726f02889008e522f02e0eb4725d202f971744084de989859c001fc32469060a0015b60405180910390a15050505050565b7ff0c57e16840df040f15088dc2f81fe391c3923bec73e23a9662efc9c229c6a008054600160401b810460ff16159067ffffffffffffffff166000811580156104435750825b905060008267ffffffffffffffff1660011480156104605750303b155b90508115801561046e575080155b1561048c5760405163f92ee8a960e01b815260040160405180910390fd5b845467ffffffffffffffff1916600117855583156104b657845460ff60401b1916600160401b1785555b6104c1600033610c5d565b507fe31b8e430349cf0071dcabaea22fe0d425cd1af2f9674ce7a0dfef889e027cf6806104ee898261192f565b50600181016104fd888261192f565b506002810180546001600160a01b03191633179055604080514267ffffffffffffffff16815290517f358e86a1dfb855dec78313c1b1f8048a18cd714c99806ec88411ae6e24dfee859181900360200190a150831561059657845460ff60401b19168555604051600181527fc7f505b2f371ae2175ee4913f4499e1f2633a7b5936321eed1cdaeb6115181d29060200160405180910390a15b50505050505050565b7f1ee98a5ea8740dd552db2a55b05f1fb3b0b10ffec53d6239805ee2da549061ca6105c981610c50565b6001600160a01b03831660008181527fe31b8e430349cf0071dcabaea22fe0d425cd1af2f9674ce7a0dfef889e027cfa6020908152604091829020805460ff1916861515908117909155825142815292519093927f1eed21eae9e02b787f56eead3bfa4513fece4fbf21c64d1d1758809bec39494692908290030190a3505050565b600080516020611ab783398151915261066381610c50565b61066f85858585610e0b565b604080516001600160a01b0387168152602081018690529081018490528215156060820152600160808201527f1d530d1d906015cb9b616a8a41f22a58ba09597e1290615ab41aa0b4327430a79060a0016103ee565b600080516020611ab78339815191526106dd81610c50565b6106e985858585610ebb565b60015b7fcade4b6152ca69e141a2dd85dc739753d985142f843d0ee777cc3ff93afab5518484600081811061072057610720611a05565b9050606002018585600181811061073957610739611a05565b90506060020160405161074d929190611a1b565b60405180910390a25050505050565b6000606080828080837fe31b8e430349cf0071dcabaea22fe0d425cd1af2f9674ce7a0dfef889e027cf66040805160008082526020820190925246913091600f60f81b94939291908480546107b0906118a5565b80601f01602080910402602001604051908101604052809291908181526020018280546107dc906118a5565b80156108295780601f106107fe57610100808354040283529160200191610829565b820191906000526020600020905b81548152906001019060200180831161080c57829003601f168201915b50505050509450604051806040016040528060018152602001603160f81b81525093929190965096509650965096509650965090919293949596565b600080516020611ab783398151915261087d81610c50565b61088985858585610ffb565b6040805186815260208101869052908101849052606081018390527f85beb41b69c0bc3d785869482d44d1c9286e18ed612e8b1e943d4182fe80828e906080016103ee565b600080516020611ab78339815191526108e681610c50565b6108f28585858561107c565b604080516001600160a01b0387168152602081018690529081018490528215156060820152600060808201527f1d530d1d906015cb9b616a8a41f22a58ba09597e1290615ab41aa0b4327430a79060a0016103ee565b6000918252600080516020611ad7833981519152602090815260408084206001600160a01b0393909316845291905290205460ff1690565b7f1ee98a5ea8740dd552db2a55b05f1fb3b0b10ffec53d6239805ee2da549061ca6109aa81610c50565b6001600160a01b0382166000036109d45760405163e6c4247b60e01b815260040160405180910390fd5b7fe31b8e430349cf0071dcabaea22fe0d425cd1af2f9674ce7a0dfef889e027cf880546001600160a01b031981166001600160a01b038581169182179093556040805167ffffffffffffffff4216815290517fe31b8e430349cf0071dcabaea22fe0d425cd1af2f9674ce7a0dfef889e027cf69490931692839133917f4e231b1687b89ee5d708fce40043f71d15e7a57b46543c1aa46861badbc0ffc59181900360200190a450505050565b600080516020611ab7833981519152610a9881610c50565b6001600160a01b03831660008181527f6887f2eb824fc075d2b2fecc9e7a21123bf79f64617fc7136cb1d5345e5447306020908152604091829020859055815185815267ffffffffffffffff4216918101919091527f447d65d3acb07f57b425fd2c8b0b4fd3142024f46ee51834ccb3d0ee6fcc25cb910160405180910390a2505050565b600080516020611ab7833981519152610b3581610c50565b610b42848460008561112c565b6040805185815260208101859052600081830152606081018490526001608082015290517fb1db2726f02889008e522f02e0eb4725d202f971744084de989859c001fc32469181900360a00190a150505050565b600080516020611ab7833981519152610bae81610c50565b610bba8585858561119e565b604080516001600160a01b03871681526020810186905290810184905282151560608201527f6639b38143d225e4c8b69552202e164358b7c8509aa3ec437099682c92f0b1b2906080016103ee565b600080516020611ab7833981519152610c2181610c50565b610c2d8585858561124e565b60006106ec565b610c3d82610306565b610c4681610c50565b6103448383610d02565b610c5a8133611378565b50565b6000600080516020611ad7833981519152610c788484610948565b610cf8576000848152602082815260408083206001600160a01b03871684529091529020805460ff19166001179055610cae3390565b6001600160a01b0316836001600160a01b0316857f2f8788117e7eff1d82e926ec794901d17c78024a50270940304540a733656f0d60405160405180910390a46001915050610300565b6000915050610300565b6000600080516020611ad7833981519152610d1d8484610948565b15610cf8576000848152602082815260408083206001600160a01b0387168085529252808320805460ff1916905551339287917ff6391f5c32d9c69d2a47ea670b442974b53935d1edc7fd64eb21e047a839171b9190a46001915050610300565b610da88183610d8d8688611a54565b610d979190611a54565b610da19190611a54565b60646113b9565b604051806080016040528085815260200184815260200183815260200182815250610dde600080516020611a9783398151915290565b8151600d8201556020820151600e8201556040820151600f82015560609091015160109091015550505050565b610e1584846113d9565b6040518060800160405280856001600160a01b03168152602001848152602001838152602001821515815250610e56600080516020611a9783398151915290565b6001600160a01b0395861660009081526006919091016020908152604091829020835181546001600160a01b031916981697909717875582015160018701558101516002860155606001516003909401805460ff191694151594909417909355505050565b828114610edb57604051630e52390960e41b815260040160405180910390fd5b60005b83811015610ff457610f47838383818110610efb57610efb611a05565b90506060020160400135848484818110610f1757610f17611a05565b90506060020160200135858585818110610f3357610f33611a05565b90506060020160000135610d979190611a54565b828282818110610f5957610f59611a05565b905060600201610f74600080516020611a9783398151915290565b6004016000878785818110610f8b57610f8b611a05565b9050602002016020810190610fa09190611a75565b6001811115610fb157610fb16119ef565b6001811115610fc257610fc26119ef565b815260208082019290925260409081016000208335815591830135600183015582013560028201555050600101610ede565b5050505050565b611019816110098486611a54565b6110139190611a54565b856113b9565b60405180608001604052808581526020018481526020018381526020018281525061104f600080516020611a9783398151915290565b81516011820155602082015160128201556040820151601382015560609091015160149091015550505050565b61108684846113d9565b6040518060800160405280856001600160a01b031681526020018481526020018381526020018215158152506110c7600080516020611a9783398151915290565b6001600160a01b0395861660009081526007919091016020908152604091829020835181546001600160a01b031916981697909717875582015160018701558101516002860155606001516003909401805460ff191694151594909417909355505050565b61113b8183610d8d8688611a54565b604051806080016040528085815260200184815260200183815260200182815250611171600080516020611a9783398151915290565b815160098201556020820151600a8201556040820151600b820155606090910151600c9091015550505050565b6111a884846113d9565b6040518060800160405280856001600160a01b031681526020018481526020018381526020018215158152506111e9600080516020611a9783398151915290565b6001600160a01b0395861660009081526005919091016020908152604091829020835181546001600160a01b031916981697909717875582015160018701558101516002860155606001516003909401805460ff191694151594909417909355505050565b82811461126e57604051630e52390960e41b815260040160405180910390fd5b60005b83811015610ff457600083838381811061128d5761128d611a05565b9050606002016020013511156112b657604051630e52390960e41b815260040160405180910390fd5b6112cb838383818110610efb57610efb611a05565b8282828181106112dd576112dd611a05565b9050606002016112f8600080516020611a9783398151915290565b600301600087878581811061130f5761130f611a05565b90506020020160208101906113249190611a75565b6001811115611335576113356119ef565b6001811115611346576113466119ef565b815260208082019290925260409081016000208335815591830135600183015582013560028201555050600101611271565b6113828282610948565b6113b55760405163e2517d3f60e01b81526001600160a01b03821660048201526024810183905260440160405180910390fd5b5050565b8082146113b557604051630e52390960e41b815260040160405180910390fd5b801580156113ef57506001600160a01b03821615155b1561140d5760405163e6c4247b60e01b815260040160405180910390fd5b80601414801561142457506001600160a01b038216155b156113b55760405163e6c4247b60e01b815260040160405180910390fd5b60006020828403121561145457600080fd5b81356001600160e01b03198116811461146c57600080fd5b9392505050565b60006020828403121561148557600080fd5b5035919050565b80356001600160a01b03811681146114a357600080fd5b919050565b600080604083850312156114bb57600080fd5b823591506114cb6020840161148c565b90509250929050565b600080600080608085870312156114ea57600080fd5b5050823594602084013594506040840135936060013592509050565b634e487b7160e01b600052604160045260246000fd5b600082601f83011261152d57600080fd5b813567ffffffffffffffff8082111561154857611548611506565b604051601f8301601f19908116603f0116810190828211818310171561157057611570611506565b8160405283815286602085880101111561158957600080fd5b836020870160208301376000602085830101528094505050505092915050565b600080604083850312156115bc57600080fd5b823567ffffffffffffffff808211156115d457600080fd5b6115e08683870161151c565b935060208501359150808211156115f657600080fd5b506116038582860161151c565b9150509250929050565b803580151581146114a357600080fd5b6000806040838503121561163057600080fd5b6116398361148c565b91506114cb6020840161160d565b6000806000806080858703121561165d57600080fd5b6116668561148c565b935060208501359250604085013591506116826060860161160d565b905092959194509250565b600080600080604085870312156116a357600080fd5b843567ffffffffffffffff808211156116bb57600080fd5b818701915087601f8301126116cf57600080fd5b8135818111156116de57600080fd5b8860208260051b85010111156116f357600080fd5b60209283019650945090860135908082111561170e57600080fd5b818701915087601f83011261172257600080fd5b81358181111561173157600080fd5b88602060608302850101111561174657600080fd5b95989497505060200194505050565b6000815180845260005b8181101561177b5760208185018101518683018201520161175f565b506000602082860101526020601f19601f83011685010191505092915050565b60ff60f81b881681526000602060e060208401526117bc60e084018a611755565b83810360408501526117ce818a611755565b606085018990526001600160a01b038816608086015260a0850187905284810360c08601528551808252602080880193509091019060005b8181101561182257835183529284019291840191600101611806565b50909c9b505050505050505050505050565b60006020828403121561184657600080fd5b61146c8261148c565b6000806040838503121561186257600080fd5b61186b8361148c565b946020939093013593505050565b60008060006060848603121561188e57600080fd5b505081359360208301359350604090920135919050565b600181811c908216806118b957607f821691505b6020821081036118d957634e487b7160e01b600052602260045260246000fd5b50919050565b601f82111561037d576000816000526020600020601f850160051c810160208610156119085750805b601f850160051c820191505b8181101561192757828155600101611914565b505050505050565b815167ffffffffffffffff81111561194957611949611506565b61195d8161195784546118a5565b846118df565b602080601f831160018114611992576000841561197a5750858301515b600019600386901b1c1916600185901b178555611927565b600085815260208120601f198616915b828110156119c1578886015182559484019460019091019084016119a2565b50858210156119df5787850151600019600388901b60f8161c191681555b5050505050600190811b01905550565b634e487b7160e01b600052602160045260246000fd5b634e487b7160e01b600052603260045260246000fd5b8235815260208084013581830152604080850135818401528335606084015290830135608083015282013560a082015260c0810161146c565b8082018082111561030057634e487b7160e01b600052601160045260246000fd5b600060208284031215611a8757600080fd5b81356002811061146c57600080fdfe6887f2eb824fc075d2b2fecc9e7a21123bf79f64617fc7136cb1d5345e54472820296b01d0b6bd176f0c1e29644934c0047abf080dae43609a1bbc09e39bafdb02dd7bc7dec4dceedda775e58dd541e08a116c6c53815c0bd028192f7b626800a26469706673582212204e65c213ac30b3477c0e13ee10f117c73b7f78ae0c0fe326f1364cee57a0ba2064736f6c63430008170033",
        "nonce": "0xc9",
        "chainId": "0x14a34"
      },
      "additionalContracts": [],
      "isFixedGasLimit": false
    },
    {
      "hash": "0xe0b5dd1fc4789511fc0e47b3029b8844d3f0fc68dda10e95301aab70dd994983",
      "transactionType": "CREATE",
      "contractName": "Profile",
      "contractAddress": "0xa879b01204fbc5d75ba31f5d797a47416a17ea72",
      "function": null,
      "arguments": [
        "0xADE2ba8068B27fae0Da07DEe0bf3a01F186277E0"
      ],
      "transaction": {
        "from": "0xaeb4a045f2730f7794886dccf527202d61aa11b9",
        "gas": "0x137821",
        "value": "0x0",
        "input": "0x60a060405234801561001057600080fd5b5060405161116d38038061116d83398101604081905261002f91610067565b6001600160a01b038116610056576040516348be0eb360e01b815260040160405180910390fd5b6001600160a01b0316608052610097565b60006020828403121561007957600080fd5b81516001600160a01b038116811461009057600080fd5b9392505050565b6080516110be6100af600039600050506110be6000f3fe608060405234801561001057600080fd5b50600436106100625760003560e01c80631b54cc88146100675780631e83409a146100a457806333bc3ccf146100b95780634cd6959c146100da5780637ecebe00146100fc578063f08f4f6414610144575b600080fd5b61007a610075366004610d36565b610166565b60408051938452602084019290925267ffffffffffffffff16908201526060015b60405180910390f35b6100b76100b2366004610d69565b6101e6565b005b6100cc6100c7366004610d84565b61030b565b60405190815260200161009b565b6100ed6100e8366004610d69565b61031c565b60405161009b93929190610ded565b6100cc61010a366004610d69565b6001600160a01b031660009081527f5b69b89eb05c82866652a349f99bd144991616b4b3dd05df2e55d6938225513e602052604090205490565b610157610152366004610d84565b610435565b60405161009b93929190610e16565b60008080807f5b69b89eb05c82866652a349f99bd144991616b4b3dd05df2e55d6938225513f8161019688610525565b8152602080820192909252604090810160009081206001600160a01b038916825290925290206001810154600282015460039092015490955090935067ffffffffffffffff169150509250925092565b60006101f133610525565b60008181527f5b69b89eb05c82866652a349f99bd144991616b4b3dd05df2e55d6938225513f602090815260408083206001600160a01b03871684529091528120600181015492935091900361025a57604051631e9acf1760e31b815260040160405180910390fd5b60018101805460009091556002820154610275908290610e50565b600283015560038201805467ffffffffffffffff19164267ffffffffffffffff1617905581546102a8908583303361057d565b81546003830154604080519283526020830184905267ffffffffffffffff90911682820152516001600160a01b0386169185917f3a8926f9ec78d051623884f2f469f89ea41bdeca18e87f4021ad6f7a2f53a75a9181900360600190a350505050565b60006103168261067a565b92915050565b6001600160a01b03811660009081527f5b69b89eb05c82866652a349f99bd144991616b4b3dd05df2e55d6938225513c602052604081205460609082908161038e8260009081527f5b69b89eb05c82866652a349f99bd144991616b4b3dd05df2e55d6938225513b6020526040902090565b9050818160010182600201548180546103a690610e63565b80601f01602080910402602001604051908101604052809291908181526020018280546103d290610e63565b801561041f5780601f106103f45761010080835404028352916020019161041f565b820191906000526020600020905b81548152906001019060200180831161040257829003601f168201915b5050505050915094509450945050509193909250565b600060606000806104708560009081527f5b69b89eb05c82866652a349f99bd144991616b4b3dd05df2e55d6938225513b6020526040902090565b805460028201546001830180549394506001600160a01b0390921692829061049790610e63565b80601f01602080910402602001604051908101604052809291908181526020018280546104c390610e63565b80156105105780601f106104e557610100808354040283529160200191610510565b820191906000526020600020905b8154815290600101906020018083116104f357829003601f168201915b50505050509150935093509350509193909250565b6001600160a01b03811660009081527f5b69b89eb05c82866652a349f99bd144991616b4b3dd05df2e55d6938225513c602052604081205480820361031657604051631c29bbf960e31b815260040160405180910390fd5b82156106735784600003610605576000816001600160a01b03168460405160006040518083038185875af1925050503d80600081146105d8576040519150601f19603f3d011682016040523d82523d6000602084013e6105dd565b606091505b50509050806105ff576040516312171d8360e31b815260040160405180910390fd5b50610673565b8460140361065a576001600160a01b0384161561067357306001600160a01b03831603610645576106406001600160a01b0385168285610686565b610673565b6106406001600160a01b0385168383866106ea565b6040516326db15e960e11b815260040160405180910390fd5b5050505050565b60006103163383610729565b6040516001600160a01b038381166024830152604482018390526106e591859182169063a9059cbb906064015b604051602081830303815290604052915060e01b6020820180516001600160e01b038381831617835250505050610959565b505050565b6040516001600160a01b0384811660248301528381166044830152606482018390526107239186918216906323b872dd906084016106b3565b50505050565b6001600160a01b03821660009081527f5b69b89eb05c82866652a349f99bd144991616b4b3dd05df2e55d6938225513c60205260408120547f5b69b89eb05c82866652a349f99bd144991616b4b3dd05df2e55d6938225513890156107a1576040516337450d8560e11b815260040160405180910390fd5b600081600501600081546107b490610e9d565b9182905550905060006107c6826109c1565b905061084e827f5b69b89eb05c82866652a349f99bd144991616b4b3dd05df2e55d69382255138805460008381527f5b69b89eb05c82866652a349f99bd144991616b4b3dd05df2e55d6938225513960205260408120829055600182018355919091527ff4f27d619843151d9533fcf00c5ffae3201cbec4ef8c2efea9846effd2a27c360155565b6000828152600384016020526040902080546001600160a01b0319166001600160a01b0388161781556001016108848282610f1c565b506000828152600384016020908152604080832067ffffffffffffffff42166002918201556001600160a01b038a16845260048701835281842086905584518584012080855290870190925290912054156108f2576040516310e39c4360e31b815260040160405180910390fd5b600081815260028501602052604090819020849055516001600160a01b03881690879085907f6d91f3bb059836079aa6debebabda590fe5201bf7b03fc9261187fc42744f47f906109469087904290610fdc565b60405180910390a4509095945050505050565b600061096e6001600160a01b03841683610a22565b905080516000141580156109935750808060200190518101906109919190611008565b155b156106e557604051635274afe760e01b81526001600160a01b03841660048201526024015b60405180910390fd5b606060006109ce83610a37565b8051909150600681106109e2575092915050565b610a1a610a14604051806040016040528060018152602001600360fc1b815250836006610a0f919061102a565b610aca565b83610af4565b949350505050565b6060610a3083836000610b20565b9392505050565b60606000610a4483610bbd565b600101905060008167ffffffffffffffff811115610a6457610a64610eb6565b6040519080825280601f01601f191660200182016040528015610a8e576020820181803683370190505b5090508181016020015b600019016f181899199a1a9b1b9c1cb0b131b232b360811b600a86061a8153600a8504945084610a9857509392505050565b60608060005b83811015610aec57610ae28286610af4565b9150600101610ad0565b509392505050565b60608282604051602001610b0992919061103d565b604051602081830303815290604052905092915050565b606081471015610b455760405163cd78605960e01b81523060048201526024016109b8565b600080856001600160a01b03168486604051610b61919061106c565b60006040518083038185875af1925050503d8060008114610b9e576040519150601f19603f3d011682016040523d82523d6000602084013e610ba3565b606091505b5091509150610bb3868383610c95565b9695505050505050565b60008072184f03e93ff9f4daa797ed6e38ed64bf6a1f0160401b8310610bfc5772184f03e93ff9f4daa797ed6e38ed64bf6a1f0160401b830492506040015b6d04ee2d6d415b85acef81000000008310610c28576d04ee2d6d415b85acef8100000000830492506020015b662386f26fc100008310610c4657662386f26fc10000830492506010015b6305f5e1008310610c5e576305f5e100830492506008015b6127108310610c7257612710830492506004015b60648310610c84576064830492506002015b600a83106103165760010192915050565b606082610caa57610ca582610cf1565b610a30565b8151158015610cc157506001600160a01b0384163b155b15610cea57604051639996b31560e01b81526001600160a01b03851660048201526024016109b8565b5080610a30565b805115610d015780518082602001fd5b604051630a12f52160e11b815260040160405180910390fd5b80356001600160a01b0381168114610d3157600080fd5b919050565b60008060408385031215610d4957600080fd5b610d5283610d1a565b9150610d6060208401610d1a565b90509250929050565b600060208284031215610d7b57600080fd5b610a3082610d1a565b600060208284031215610d9657600080fd5b5035919050565b60005b83811015610db8578181015183820152602001610da0565b50506000910152565b60008151808452610dd9816020860160208601610d9d565b601f01601f19169290920160200192915050565b838152606060208201526000610e066060830185610dc1565b9050826040830152949350505050565b6001600160a01b0384168152606060208201819052600090610e0690830185610dc1565b634e487b7160e01b600052601160045260246000fd5b8082018082111561031657610316610e3a565b600181811c90821680610e7757607f821691505b602082108103610e9757634e487b7160e01b600052602260045260246000fd5b50919050565b600060018201610eaf57610eaf610e3a565b5060010190565b634e487b7160e01b600052604160045260246000fd5b601f8211156106e5576000816000526020600020601f850160051c81016020861015610ef55750805b601f850160051c820191505b81811015610f1457828155600101610f01565b505050505050565b815167ffffffffffffffff811115610f3657610f36610eb6565b610f4a81610f448454610e63565b84610ecc565b602080601f831160018114610f7f5760008415610f675750858301515b600019600386901b1c1916600185901b178555610f14565b600085815260208120601f198616915b82811015610fae57888601518255948401946001909101908401610f8f565b5085821015610fcc5787850151600019600388901b60f8161c191681555b5050505050600190811b01905550565b604081526000610fef6040830185610dc1565b905067ffffffffffffffff831660208301529392505050565b60006020828403121561101a57600080fd5b81518015158114610a3057600080fd5b8181038181111561031657610316610e3a565b6000835161104f818460208801610d9d565b835190830190611063818360208801610d9d565b01949350505050565b6000825161107e818460208701610d9d565b919091019291505056fea26469706673582212209e7be7c624870c94e2e511d227832b193f4661b18625ea1dfc21c89db2b9fa9864736f6c63430008170033000000000000000000000000ade2ba8068b27fae0da07dee0bf3a01f186277e0",
        "nonce": "0xca",
        "chainId": "0x14a34"
      },
      "additionalContracts": [],
      "isFixedGasLimit": false
    },
    {
      "hash": "0x6bac00a0ef87adbebe30ce86d04cf1fc07e7ce30757fae03f5d55e5cacf2b2fc",
      "transactionType": "CREATE",
      "contractName": "Wish",
      "contractAddress": "0x661bed734f2981621c14e60d758e3376e385158d",
      "function": null,
      "arguments": null,
      "transaction": {
        "from": "0xaeb4a045f2730f7794886dccf527202d61aa11b9",
        "gas": "0x41967c",
        "value": "0x0",
        "input": "0x608060405234801561001057600080fd5b50613adc806100206000396000f3fe6080604052600436106100dd5760003560e01c8063b55fec591161007f578063ca745f7f11610059578063ca745f7f14610316578063e07e360a14610337578063e152bcfb1461034a578063f83c213a1461035d57600080fd5b8063b55fec59146102a8578063baea7a77146102c6578063bde1c45a146102e657600080fd5b806348e2b8be116100bb57806348e2b8be1461014c57806385bd7ebd1461016c5780638cdf4f371461018c5780638d67acae1461021557600080fd5b806306c5399f146100e2578063202cbac2146100f75780632bb985ba14610139575b600080fd5b6100f56100f03660046130ed565b61036b565b005b34801561010357600080fd5b50610117610112366004613109565b610374565b6040516101309d9c9b9a99989796959493929190613165565b60405180910390f35b6100f56101473660046132b2565b61062d565b34801561015857600080fd5b506100f56101673660046132e0565b610636565b34801561017857600080fd5b506100f561018736600461332e565b61072c565b34801561019857600080fd5b506101a1610735565b604080518451815260208086015181830152858301518284015260609586015186830152845160808301528481015160a08301528483015160c08301529385015160e08201528251610100820152928201516101208401528101516101408301529091015161016082015261018001610130565b34801561022157600080fd5b50610235610230366004613359565b61086c565b6040805185518152602080870151818301529582015181830152845160608201528585015160808201529381015160a0850152825160c08501528483015160e085015291820151610100840152805161012084015292830151610140830152919091015161016082015261018001610130565b3480156102b457600080fd5b506100f56102c33660046130ed565b50565b3480156102d257600080fd5b506102356102e1366004613109565b610a5f565b3480156102f257600080fd5b5061030661030136600461339a565b610b4a565b60405161013094939291906133e3565b610329610324366004613430565b610c9d565b604051908152602001610130565b61032961034536600461344d565b610caf565b6100f56103583660046130ed565b610d0f565b6100f56102c3366004613483565b6102c381610d18565b6000806000806103b56040518060a0016040528060006001600160a01b03168152602001600081526020016000815260200160008152602001600081525090565b6103e2604051806060016040528060006001600160a01b0316815260200160008152602001600081525090565b60006103ec613061565b61041060405180606001604052806000815260200160008152602001600081525090565b61043460405180606001604052806000815260200160008152602001600081525090565b6000806000806104438f610d96565b9050600061045082610db3565b82546001808501546002860154600b8701546000938452600c88016020819052604085209697509495929460ff8084169561010090940481169460038b019460088c019492909216928a928081526020019081526020016000208b600d0160009054906101000a90046001600160401b03168c600d0160089054906101000a90046001600160401b03168d600e0160009054906101000a90046001600160401b0316886040518060a00160405290816000820160009054906101000a90046001600160a01b03166001600160a01b03166001600160a01b031681526020016001820154815260200160028201548152602001600382015481526020016004820154815250509850876040518060600160405290816000820160009054906101000a90046001600160a01b03166001600160a01b03166001600160a01b03168152602001600182015481526020016002820154815250509750846040518060600160405290816000820154815260200160018201548152602001600282015481525050945083604051806060016040529081600082015481526020016001820154815260200160028201548152505093509e509e509e509e509e509e509e509e509e509e509e509e509e50505091939597999b9d90929496989a9c50565b6102c381610e70565b61071f6107097f7d27d93f01bdca3f958daed77275805b5faa59f34021c5e654e552961c4bb9ef843561066f604087016020880161339a565b61067f606088016040890161339a565b61068f6080890160608a01613495565b60808901356106a460408a0160208b01613495565b6040805160208101989098528701959095526001600160a01b0393841660608701529190921660808501526001600160401b0391821660a085015260c08401521660e08201526101000160405160208183030381529060405280519060200120610ed7565b610719604085016020860161339a565b83610f21565b61072882610fd0565b5050565b6102c381611041565b6107606040518060800160405280600081526020016000815260200160008152602001600081525090565b61078b6040518060800160405280600081526020016000815260200160008152602001600081525090565b6107b66040518060800160405280600081526020016000815260200160008152602001600081525090565b6107be6110c1565b6009016107c96110c1565b600d016107d46110c1565b604080516080808201835285548252600180870154602080850191909152600280890154858701526003988901546060808701919091528651808601885289548152938901548484015290880154838701529690970154818701528351918201845260118501548252601285015496820196909652601384015492810192909252601490920154928101929092529591945092509050565b61089060405180606001604052806000815260200160008152602001600081525090565b6108b460405180606001604052806000815260200160008152602001600081525090565b6108d860405180606001604052806000815260200160008152602001600081525090565b6108fc60405180606001604052806000815260200160008152602001600081525090565b6109046110c1565b600301600087600181111561091b5761091b613122565b600181111561092c5761092c613122565b81526020019081526020016000206109aa866109466110c1565b60030160008a600181111561095d5761095d613122565b600181111561096e5761096e613122565b815260200190815260200160002060405180606001604052908160008201548152602001600182015481526020016002820154815250506110e5565b6109b26110c1565b60040160008960018111156109c9576109c9613122565b60018111156109da576109da613122565b8152602001908152602001600020610a0b886109f46110c1565b60040160008c600181111561095d5761095d613122565b60408051606080820183528654825260018088015460208085019190915260029889015484860152845192830185528654835290860154908201529390950154908301529299919850965090945092505050565b610a8360405180606001604052806000815260200160008152602001600081525090565b610aa760405180606001604052806000815260200160008152602001600081525090565b610acb60405180606001604052806000815260200160008152602001600081525090565b610aef60405180606001604052806000815260200160008152602001600081525090565b6000610afa86610d96565b6000808052600c8201602081905260408220600784015493945092610b22929091908061095d565b60016000818152600c850160208190526040822060078701549093610a0b939192919061095d565b610b526130a2565b610b5a6130a2565b610b626130a2565b6000610b6c6110c1565b6001600160a01b038616600090815260059190910160205260409020610b906110c1565b6001600160a01b038716600090815260069190910160205260409020610bb46110c1565b6001600160a01b038816600090815260079190910160205260409020610bd86110c1565b6001600160a01b03808a1660009081526008929092016020908152604092839020548351608080820186528854851682526001808a0154838601526002808b01548489015260039a8b015460ff908116151560608087019190915289518086018b528c548a1681528c850154818a01528c840154818c01529b8d0154821615158c82015289519485018a528a54909816845291890154958301959095529387015495810195909552949096015416151590820152909650909450925090509193509193565b6000610ca982336111cd565b92915050565b3360009081527fe31b8e430349cf0071dcabaea22fe0d425cd1af2f9674ce7a0dfef889e027cfa602052604081205460ff16610cfe576040516334dddfcb60e11b815260040160405180910390fd5b610d0883836111cd565b9392505050565b6102c3816112ea565b6000610d238261135c565b9050806001015482600001357f4ea97b71007fe6076a65e936e213b21e9d300cc7d3154dc8c743116aa583de2e60018460030160020154856003016003015486600d0160189054906101000a90046001600160401b0316604051610d8a94939291906134be565b60405180910390a35050565b6000610da06110c1565b6000928352600101602052506040902090565b610dbb613061565b600f82015415610e3b5781600f01600081548110610ddb57610ddb6134f0565b60009182526020918290206040805160a0810182526004909302909101805483526001810154938301939093526002830154908201526003909101546001600160401b038082166060840152600160401b90910416608082015292915050565b50506040805160a08101825260008082526020820181905291810182905260608101829052608081019190915290565b919050565b6000610e7b82611410565b91505081357fee370547898199cc9e7f62f5b6d5a0342b6bba46578be68db0c319e4f9dceaad82610eb260a0860160808701613495565b604080519283526001600160401b039091166020830152015b60405180910390a25050565b600080610ee26114d9565b60405161190160f01b602082015260228101919091526042810184905260620160408051601f1981840301815291905280516020909101209392505050565b42610f326040830160208401613495565b6001600160401b03161015610f5a57604051630819bdcd60e01b815260040160405180910390fd5b610fae83610f688380613506565b8080601f016020809104026020016040519081016040528093929190818152602001838380828437600092019190915250506001600160a01b0387169392915050611592565b610fcb576040516337e8456b60e01b815260040160405180910390fd5b505050565b6000806000610fde846115f4565b925092509250826000015184600001357f52801867355e90ecb2d219b0d9a53729b87f2b458af7567d5d2cf47301f69e578560200151858588606001518960400151426040516110339695949392919061354c565b60405180910390a350505050565b600061104c8261174f565b600d8101546040805160088401546001600160a01b0316815260098401546020820152600a84015491810191909152600160c01b9091046001600160401b031660608201529091508235907f4464afafa8195ed670b723a0e6311e868d2fafe9d00a9eae85e857552e2003a690608001610ecb565b7f6887f2eb824fc075d2b2fecc9e7a21123bf79f64617fc7136cb1d5345e54472890565b61110960405180606001604052806000815260200160008152602001600081525090565b815160009060649061111b90866135bc565b61112591906135d3565b9050838111156111485760405163020bade960e31b815260040160405180910390fd5b6000606484602001518661115c91906135bc565b61116691906135d3565b90508461117383836135f5565b11156111925760405163020bade960e31b815260040160405180910390fd5b60008261119f8388613608565b6111a99190613608565b60408051606081018252948552602085019390935291830191909152509392505050565b60008060006111dc85856117f7565b6001820154825460028401546040805160a08101825260038701546001600160a01b0316815260048701546020820152600587015491810191909152600686015460608201526007860154608082018190529597509395509193909285927f6cf5acf6efa63bd08481927458446afec9721792d73e9a31e5ee912adf0c47469260ff8083169361010090930416919061127b90600c8b0160008061095d565b60078a015461129190600c8c016000600161095d565b8a600d0160009054906101000a90046001600160401b03168b600d0160089054906101000a90046001600160401b03168f60e001356040516112da98979695949392919061361b565b60405180910390a4949350505050565b60006112f58261183e565b9050806001015482600001357f4ea97b71007fe6076a65e936e213b21e9d300cc7d3154dc8c743116aa583de2e60008460030160020154856003016003015486600d0160189054906101000a90046001600160401b0316604051610d8a94939291906134be565b6000806113698335610d96565b90506000611376826118d4565b600183015460088401546003850180546001600160a01b0319166001600160a01b03909216918217905560098501546004860155600a8501546005860181905592935090916113c5919061194b565b60068401556000600a84015560018301829055600d830180546001600160c01b0316600160c01b426001600160401b031602179055611407816003850161196b565b50909392505050565b6000808061141e8435610d96565b9050600061142c85836119b7565b905061143e604086016020870161339a565b600082815260108401602090815260409182902080546001600160a01b0319166001600160a01b039490941693909317835590870180356001840155606088013560028401556003909201805467ffffffffffffffff1916426001600160401b03161790556114cf918735916114b69190890161339a565b876040013588606001356114c987610db3565b51611a4a565b9094909350915050565b60007f8b73c3c69bb8fe3d512ecc4cf759cc79239f7b179b0ffacaa9a75d522b39400f7fe31b8e430349cf0071dcabaea22fe0d425cd1af2f9674ce7a0dfef889e027cf660405161152a91906136d7565b6040805191829003822060208301939093528101919091527fc89efdaa54c0f20c7adf612882df0950f5a951637e0307cdcb4c672f298b8bc660608201524660808201523060a082015260c00160405160208183030381529060405280519060200120905090565b60008060006115a18585611c35565b50909250905060008160038111156115bb576115bb613122565b1480156115d95750856001600160a01b0316826001600160a01b0316145b806115ea57506115ea868686611c82565b9695505050505050565b6115fc613061565b600061162260405180606001604052806000815260200160008152602001600081525090565b600061162e8535610d96565b905060008061163d8784611d5d565b9150915060006040518060a00160405280848152602001838152602001896080013581526020018960600160208101906116779190613495565b6001600160401b0390811682524281166020928301819052600f8801805460018082018355600092835285832087516004909302019182559486015194810194909455604085015160028086019190915560608601516003909501805460808801518616600160401b026fffffffffffffffffffffffffffffffff19909116969095169590951793909317909355600e8801805467ffffffffffffffff19169091179055600b8701805460ff19169091179055909150611738893583611dff565b600195909501549199919850939650945050505050565b60008061175c8335610d96565b905061177661177036859003850185613778565b82611f53565b506040805160608101825260038301546001600160a01b0316808252600484015460208084018290529690960135919092018190526008830180546001600160a01b0319169092179091556009820193909355600a81019290925550600d810180546001600160c01b0316600160c01b426001600160401b03160217905590565b60008061180384611fcf565b506000806118118686612080565b9092509050611832828661182d368a90038a0160408b016137d4565b6123fb565b925090505b9250929050565b60008061184b8335610d96565b6005810154600182015460068301549293509091600061186b85836124c2565b60058601839055600386015490915061188d906001600160a01b03168361194b565b600686015560018501819055600d850180546001600160c01b0316600160c01b426001600160401b0316021790556118c987358685878661250a565b509295945050505050565b60006118df82612645565b600b8201546118f29060ff16600261266f565b600a82015460000361191757604051637746854b60e01b815260040160405180910390fd5b6009820154600a83015461192b91906126b1565b600061193b336126de565b6126de565b9050610ca9836001015482612736565b6000610d08836119668461195d6110c1565b60110154612756565b61276c565b600281015415610728576001810154815460028301546000858152600080516020613a87833981519152602052604090205461072893926001600160a01b0390811692913391166127c7565b60006119c282612645565b60006119cd336126de565b60008181526010850160205260409020600301549091506001600160401b031615611a0b5760405163012ca00f60e01b815260040160405180910390fd5b8254611a179082612736565b611a25836001015482612736565b610d08846000600b86015460ff166002811115611a4457611a44613122565b146128c4565b6000611a5586610d96565b90506000611a7c81600b84015460ff166002811115611a7657611a76613122565b14612923565b905060006064826000015486611a9291906135bc565b611a9c91906135d3565b905084811115611abf5760405163020bade960e31b815260040160405180910390fd5b60006064836001015487611ad391906135bc565b611add91906135d3565b905085611aea83836135f5565b1115611b095760405163020bade960e31b815260040160405180910390fd5b60006064846002015488611b1d91906135bc565b611b2791906135d3565b9050600081118015611b37575085155b15611b555760405163020bade960e31b815260040160405180910390fd5b600081611b6284866135f5565b611b6c91906135f5565b905087811115611b8f5760405163020bade960e31b815260040160405180910390fd5b6000611b9b828a613608565b9050611bb187600001548d8d8d8960008061294d565b611bc687600101548d8d8d886000600161294d565b611bd7888d8d8d876000600261294d565b8015611c1557611c158a8c83335b7fe31b8e430349cf0071dcabaea22fe0d425cd1af2f9674ce7a0dfef889e027cf8546001600160a01b03166127c7565b8115611c2757611c278a8c8433612aa0565b505050505050505050505050565b60008060008351604103611c6f5760208401516040850151606086015160001a611c6188828585612adc565b955095509550505050611c7b565b50508151600091506002905b9250925092565b6000806000856001600160a01b03168585604051602401611ca4929190613866565b60408051601f198184030181529181526020820180516001600160e01b0316630b135d3f60e11b17905251611cd991906138a0565b600060405180830381855afa9150503d8060008114611d14576040519150601f19603f3d011682016040523d82523d6000602084013e611d19565b606091505b5091509150818015611d2d57506020815110155b80156115ea57508051630b135d3f60e11b90611d5290830160209081019084016138bc565b149695505050505050565b600080611d6d8360010154612bab565b50600b830154611d819060ff16600061266f565b6000611d96611936604087016020880161339a565b9050611da6846001015482612736565b600080611db9606088016040890161339a565b6001600160a01b031614611df457611dda611936606088016040890161339a565b9050611de68183612736565b611df4856001015482612736565b909590945092505050565b611e2360405180606001604052806000815260200160008152602001600081525090565b6000611e2e84610d96565b905060008360200151600014611e42575060015b6000611e67836003016004015484600c01600085600181111561095d5761095d613122565b805190915015611ea85784516000908152600080516020613a8783398151915260205260409020548151611ea89188916001600160a01b0390911690612bd9565b60008160200151118015611ec0575060008560200151115b15611f01576020858101516000908152600080516020613a878339815191528252604090205490820151611f019188916001600160a01b0390911690612bd9565b604081015115611f4a57611f4a867fe31b8e430349cf0071dcabaea22fe0d425cd1af2f9674ce7a0dfef889e027cf66002015460408401516001600160a01b0390911690612bd9565b95945050505050565b6000611f5e82612645565b611f6b8260010154612bab565b50600b820154611f7f9060ff16600261266f565b60038201546020840151611f9c916001600160a01b031690612c58565b600582015460208401511115611fc557604051637746854b60e01b815260040160405180910390fd5b50600a0154919050565b6000611fd96110c1565b60e08301356000908152602091909152604090205460ff161561200f576040516337fb5bd160e11b815260040160405180910390fd5b612021606083013560808401356126b1565b61205b61203460c0840160a08501613495565b6001600160401b031661204d60e0850160c08601613495565b6001600160401b0316612cff565b61207861206e606084016040850161339a565b6080840135612c58565b506001919050565b600080600061208d6110c1565b9050600061209a856126de565b60e08701356000908152602084905260408120805460ff19166001179055600284018054929350909182906120ce906138d5565b91829055506000818152600180860160209081526040909220858155018490559091506120fd908801886138ee565b6000828152600180860160205260409091206002018054909160ff1990911690838181111561212e5761212e613122565b0217905550612143606088016040890161339a565b6000828152600185016020526040908190206003810180546001600160a01b0319166001600160a01b039490941693909317909255606089018035600484015560808a01356005909301929092556121aa916121a0918a0161339a565b608089013561194b565b6000828152600185016020908152604080832060068101949094556007840192909255600b909201805460ff191690556121e991908901908901613917565b60008281526001850160209081526040822060020180549315156101000261ff0019909416939093179092556003850191612226908a018a6138ee565b600181111561223757612237613122565b600181111561224857612248613122565b81526020808201929092526040908101600090812084825260018781018552838320838052600c01855292822081548155838201549381019390935560029081015492019190915560048501916122a1908a018a6138ee565b60018111156122b2576122b2613122565b60018111156122c3576122c3613122565b8152602001908152602001600020836001016000838152602001908152602001600020600c0160006001808111156122fd576122fd613122565b600181111561230e5761230e613122565b81526020810191909152604001600020815481556001808301549082015560029182015491015561234560c0880160a08901613495565b60008281526001850160205260409020600d01805467ffffffffffffffff19166001600160401b039290921691909117905561238760e0880160c08901613495565b60008281526001949094016020526040909320600d81018054426001600160401b03908116600160801b0267ffffffffffffffff60801b1991909716600160401b021677ffffffffffffffffffffffffffffffff000000000000000019909116179490941790935596919550909350505050565b8060400151600003612420576040516301af6ec560e01b815260040160405180910390fd5b600061242a6110c1565b6040808401516000878152600184016020529190912060070154919250612450916135f5565b60008581526001830160209081526040909120600701919091558201516014036124995760408201518251612494916001600160a01b039091169085903090612d49565b6124bc565b6020820151156124bc576040516326db15e960e11b815260040160405180910390fd5b50505050565b60006124cd83612645565b600b8301546124e09060ff16600261266f565b60006124eb336126de565b90506124fb846001015482612736565b6004840154610d0890846126b1565b60006125146110c1565b60110190506000606482600101548561252d91906135bc565b61253791906135d3565b61254190856135f5565b90506000606483600201548661255791906135bc565b61256191906135d3565b90506000816125708487613608565b61257a9190613608565b90506125a961258889610db3565b5160038a015460048b01548c916001600160a01b031690866001600261294d565b82156125f057600488015460038901546000898152600080516020613a8783398151915260205260409020546125f092916001600160a01b039081169187913391166127c7565b8115612615576004880154600389015461261591906001600160a01b03168433612aa0565b801561263a576004880154600389015461263a91906001600160a01b03168333611be5565b505050505050505050565b6002810154610100900460ff166102c357604051639ba6061b60e01b815260040160405180910390fd5b80600281111561268157612681613122565b82600281111561269357612693613122565b146107285760405163384d2efd60e11b815260040160405180910390fd5b6000826000036126be5750805b803414610fcb57604051631e9acf1760e31b815260040160405180910390fd5b6001600160a01b03811660009081527f5b69b89eb05c82866652a349f99bd144991616b4b3dd05df2e55d6938225513c6020526040812054808203610ca957604051631c29bbf960e31b815260040160405180910390fd5b80820361072857604051637746854b60e01b815260040160405180910390fd5b60006127628383612db0565b610d0890846135f5565b6000806127776110c1565b6001600160a01b0385166000908152600891909101602052604090205490506127a181600a613a18565b6127b5846127b084600a613a18565b612dc8565b6127bf91906135bc565b949350505050565b82156128bd578460000361284f576000816001600160a01b03168460405160006040518083038185875af1925050503d8060008114612822576040519150601f19603f3d011682016040523d82523d6000602084013e612827565b606091505b5050905080612849576040516312171d8360e31b815260040160405180910390fd5b506128bd565b846014036128a4576001600160a01b038416156128bd57306001600160a01b0383160361288f5761288a6001600160a01b0385168285612e18565b6128bd565b61288a6001600160a01b038516838386612d49565b6040516326db15e960e11b815260040160405180910390fd5b5050505050565b6000806128e06128da604086016020870161339a565b84612e49565b915091508360400135821415806128fb575083606001358114155b156129195760405163d51f168360e01b815260040160405180910390fd5b6124bc82826126b1565b6000811561293c576129336110c1565b60090192915050565b6129446110c1565b600d0192915050565b8215612a975760008781527f5b69b89eb05c82866652a349f99bd144991616b4b3dd05df2e55d6938225513f602090815260408083206001600160a01b03891684529091528120600381015490916001600160401b039091169003612a245784815560038101805467ffffffffffffffff1916426001600160401b031617905560008881527f5b69b89eb05c82866652a349f99bd144991616b4b3dd05df2e55d69382255140602090815260408220805460018101825590835291200180546001600160a01b0319166001600160a01b0388161790555b838160010154612a3491906135f5565b600182015560038101546040516001600160a01b0388169189918b917fdb12301945e3cb55276f1c8ca1bd5ca9f7768e85248a78df07237f133fc4028191612a8d918b918b918b918b916001600160401b031690613a24565b60405180910390a4505b50505050505050565b83601403612abd576124946001600160a01b038416823085612d49565b83156124bc576040516326db15e960e11b815260040160405180910390fd5b600080807f7fffffffffffffffffffffffffffffff5d576e7357a4501ddfe92f46681b20a0841115612b175750600091506003905082612ba1565b604080516000808252602082018084528a905260ff891692820192909252606081018790526080810186905260019060a0016020604051602081039080840390855afa158015612b6b573d6000803e3d6000fd5b5050604051601f1901519150506001600160a01b038116612b9757506000925060019150829050612ba1565b9250600091508190505b9450945094915050565b600080612bb7336126de565b9050828114610ca957604051631a7765bd60e31b815260040160405180910390fd5b80600003612bfa576040516301af6ec560e01b815260040160405180910390fd5b6000612c0584610d96565b6007810154909150821115612c2d5760405163ef5dd7b560e01b815260040160405180910390fd5b6007810180548390039055600481015460038201546124bc91906001600160a01b03168430876127c7565b6000612c626110c1565b6001600160a01b03808516600090815260059290920160209081526040808420815160808101835281549094168452600181015492840192909252600282015490830181905260039091015460ff16151560608301529092509003612cda57604051637746854b60e01b815260040160405180910390fd5b8060400151821015610fcb57604051637746854b60e01b815260040160405180910390fd5b808210612d1f57604051637746854b60e01b815260040160405180910390fd5b426001600160401b031681101561072857604051637746854b60e01b815260040160405180910390fd5b6040516001600160a01b0384811660248301528381166044830152606482018390526124bc9186918216906323b872dd906084015b604051602081830303815290604052915060e01b6020820180516001600160e01b038381831617835250505050612f06565b60006064612dbe83856135bc565b610d0891906135d3565b600081600003612de357612ddc82846135d3565b9050610ca9565b8215612e0f5781612df5600185613608565b612dff91906135d3565b612e0a9060016135f5565b610d08565b50600092915050565b6040516001600160a01b03838116602483015260448201839052610fcb91859182169063a9059cbb90606401612d7e565b6000808215612eac57612e5a6110c1565b6001600160a01b03851660009081526006919091016020526040902060010154612e826110c1565b6001600160a01b038616600090815260069190910160205260409020600201549092509050611837565b612eb46110c1565b6001600160a01b03851660009081526007919091016020526040902060010154612edc6110c1565b6001600160a01b038616600090815260079190910160205260409020600201549092509050611837565b6000612f1b6001600160a01b03841683612f6e565b90508051600014158015612f40575080806020019051810190612f3e9190613a69565b155b15610fcb57604051635274afe760e01b81526001600160a01b03841660048201526024015b60405180910390fd5b6060610d088383600084600080856001600160a01b03168486604051612f9491906138a0565b60006040518083038185875af1925050503d8060008114612fd1576040519150601f19603f3d011682016040523d82523d6000602084013e612fd6565b606091505b50915091506115ea868383606082612ff157612e0a82613038565b815115801561300857506001600160a01b0384163b155b1561303157604051639996b31560e01b81526001600160a01b0385166004820152602401612f65565b5080610d08565b8051156130485780518082602001fd5b604051630a12f52160e11b815260040160405180910390fd5b6040518060a0016040528060008152602001600081526020016000815260200160006001600160401b0316815260200160006001600160401b031681525090565b604051806080016040528060006001600160a01b0316815260200160008152602001600081526020016000151581525090565b6000602082840312156130e757600080fd5b50919050565b6000602082840312156130ff57600080fd5b610d0883836130d5565b60006020828403121561311b57600080fd5b5035919050565b634e487b7160e01b600052602160045260246000fd5b600281106102c3576102c3613122565b600381106102c3576102c3613122565b61316181613148565b9052565b8d8152602081018d9052610360810161317d8d613138565b8c60408301528b151560608301526131c9608083018c80516001600160a01b03168252602080820151908301526040808201519083015260608082015190830152608090810151910152565b89516001600160a01b031661012083015260208a015161014083015260408a01516101608301526131fe61018083018a613158565b87516101a08301526020808901516101c08401526040808a01516101e085015260608a01516001600160401b039081166102008601526080909a01518a166102208501528851610240850152888201516102608501529788015161028084015286516102a08401528601516102c083015294909501516102e0860152918516610300850152841661032084015290921661034090910152979650505050505050565b600060a082840312156130e757600080fd5b600060a082840312156132c457600080fd5b610d0883836132a0565b6000604082840312156130e757600080fd5b60008060c083850312156132f357600080fd5b6132fd84846132a0565b915060a08301356001600160401b0381111561331857600080fd5b613324858286016132ce565b9150509250929050565b60006040828403121561334057600080fd5b610d0883836132ce565b803560028110610e6b57600080fd5b6000806040838503121561336c57600080fd5b6133758361334a565b946020939093013593505050565b80356001600160a01b0381168114610e6b57600080fd5b6000602082840312156133ac57600080fd5b610d0882613383565b80516001600160a01b0316825260208082015190830152604080820151908301526060908101511515910152565b6101a081016133f282876133b5565b6133ff60808301866133b5565b61340d6101008301856133b5565b8261018083015295945050505050565b600061010082840312156130e757600080fd5b6000610100828403121561344357600080fd5b610d08838361341d565b600080610120838503121561346157600080fd5b61346b848461341d565b915061347a6101008401613383565b90509250929050565b6000606082840312156130e757600080fd5b6000602082840312156134a757600080fd5b81356001600160401b0381168114610d0857600080fd5b608081016134cb86613138565b948152602081019390935260408301919091526001600160401b031660609091015290565b634e487b7160e01b600052603260045260246000fd5b6000808335601e1984360301811261351d57600080fd5b8301803591506001600160401b0382111561353757600080fd5b60200191503681900382131561183757600080fd5b86815260208101869052610100810161357c60408301878051825260208082015190830152604090810151910152565b6001600160401b0380861660a08401528460c084015280841660e084015250979650505050505050565b634e487b7160e01b600052601160045260246000fd5b8082028115828204841417610ca957610ca96135a6565b6000826135f057634e487b7160e01b600052601260045260246000fd5b500490565b80820180821115610ca957610ca96135a6565b81810381811115610ca957610ca96135a6565b61020081016136298a613138565b8982528815156020830152613672604083018980516001600160a01b03168252602080820151908301526040808201519083015260608082015190830152608090810151910152565b865160e0830152602080880151610100840152604097880151610120840152865161014084015286015161016083015294909501516101808601526001600160401b039283166101a086015291166101c08401526101e0909201919091529392505050565b60008083548160018260011c915060018316806136f557607f831692505b6020808410820361371457634e487b7160e01b86526022600452602486fd5b818015613728576001811461373d5761376a565b60ff198616895284151585028901965061376a565b60008a81526020902060005b868110156137625781548b820152908501908301613749565b505084890196505b509498975050505050505050565b60006040828403121561378a57600080fd5b604051604081018181106001600160401b03821117156137ba57634e487b7160e01b600052604160045260246000fd5b604052823581526020928301359281019290925250919050565b6000606082840312156137e657600080fd5b604051606081018181106001600160401b038211171561381657634e487b7160e01b600052604160045260246000fd5b60405261382283613383565b815260208301356020820152604083013560408201528091505092915050565b60005b8381101561385d578181015183820152602001613845565b50506000910152565b828152604060208201526000825180604084015261388b816060850160208701613842565b601f01601f1916919091016060019392505050565b600082516138b2818460208701613842565b9190910192915050565b6000602082840312156138ce57600080fd5b5051919050565b6000600182016138e7576138e76135a6565b5060010190565b60006020828403121561390057600080fd5b610d088261334a565b80151581146102c357600080fd5b60006020828403121561392957600080fd5b8135610d0881613909565b600181815b8085111561396f578160001904821115613955576139556135a6565b8085161561396257918102915b93841c9390800290613939565b509250929050565b60008261398657506001610ca9565b8161399357506000610ca9565b81600181146139a957600281146139b3576139cf565b6001915050610ca9565b60ff8411156139c4576139c46135a6565b50506001821b610ca9565b5060208310610133831016604e8410600b84101617156139f2575081810a610ca9565b6139fc8383613934565b8060001904821115613a1057613a106135a6565b029392505050565b6000610d088383613977565b8581526020810185905260a08101613a3b85613138565b846040830152613a4a84613148565b8360608301526001600160401b03831660808301529695505050505050565b600060208284031215613a7b57600080fd5b8151610d088161390956fe5b69b89eb05c82866652a349f99bd144991616b4b3dd05df2e55d6938225513ba2646970667358221220144249deed042c3d9bcfbdc235c047d93583b03299bde3d961ca4467915840e664736f6c63430008170033",
        "nonce": "0xcb",
        "chainId": "0x14a34"
      },
      "additionalContracts": [],
      "isFixedGasLimit": false
    },
    {
      "hash": "0xd83aa0da770bb20ba0a899e7f4ab08a4ef4b4e2a03cc8c59cc02bded1df2d65d",
      "transactionType": "CALL",
      "contractName": "ZeekRouter",
      "contractAddress": "0xade2ba8068b27fae0da07dee0bf3a01f186277e0",
      "function": "multicall(bytes[])",
      "arguments": [
        "[0x7aaaae8b0000000000000000000000000000000000000000000000000000000000000020a217fddf0000000000000000000000000000000000000000000000000000000000000000000000000000000000000000000000000000000000000000000000600000000000000000000000003f5bc15173e0463959fdef0dc3fb61d135665dd6000000000000000000000000000000000000000000000000000000000000001444454641554c545f41444d494e5f524f4c452829000000000000000000000000, 0x7aaaae8b000000000000000000000000000000000000000000000000000000000000002084b0196e0000000000000000000000000000000000000000000000000000000000000000000000000000000000000000000000000000000000000000000000600000000000000000000000003f5bc15173e0463959fdef0dc3fb61d135665dd6000000000000000000000000000000000000000000000000000000000000000e656970373132446f6d61696e2829000000000000000000000000000000000000, 0x7aaaae8b0000000000000000000000000000000000000000000000000000000000000020248a9ca30000000000000000000000000000000000000000000000000000000000000000000000000000000000000000000000000000000000000000000000600000000000000000000000003f5bc15173e0463959fdef0dc3fb61d135665dd60000000000000000000000000000000000000000000000000000000000000015676574526f6c6541646d696e2862797465733332290000000000000000000000, 0x7aaaae8b00000000000000000000000000000000000000000000000000000000000000202f2ff15d0000000000000000000000000000000000000000000000000000000000000000000000000000000000000000000000000000000000000000000000600000000000000000000000003f5bc15173e0463959fdef0dc3fb61d135665dd6000000000000000000000000000000000000000000000000000000000000001a6772616e74526f6c6528627974657333322c6164647265737329000000000000, 0x7aaaae8b000000000000000000000000000000000000000000000000000000000000002091d148540000000000000000000000000000000000000000000000000000000000000000000000000000000000000000000000000000000000000000000000600000000000000000000000003f5bc15173e0463959fdef0dc3fb61d135665dd60000000000000000000000000000000000000000000000000000000000000018686173526f6c6528627974657333322c61646472657373290000000000000000, 0x7aaaae8b00000000000000000000000000000000000000000000000000000000000000204cd88b760000000000000000000000000000000000000000000000000000000000000000000000000000000000000000000000000000000000000000000000600000000000000000000000003f5bc15173e0463959fdef0dc3fb61d135665dd60000000000000000000000000000000000000000000000000000000000000019696e697469616c697a6528737472696e672c737472696e672900000000000000, 0x7aaaae8b000000000000000000000000000000000000000000000000000000000000002036568abe0000000000000000000000000000000000000000000000000000000000000000000000000000000000000000000000000000000000000000000000600000000000000000000000003f5bc15173e0463959fdef0dc3fb61d135665dd6000000000000000000000000000000000000000000000000000000000000001d72656e6f756e6365526f6c6528627974657333322c6164647265737329000000, 0x7aaaae8b0000000000000000000000000000000000000000000000000000000000000020d547741f0000000000000000000000000000000000000000000000000000000000000000000000000000000000000000000000000000000000000000000000600000000000000000000000003f5bc15173e0463959fdef0dc3fb61d135665dd6000000000000000000000000000000000000000000000000000000000000001b7265766f6b65526f6c6528627974657333322c61646472657373290000000000, 0x7aaaae8b0000000000000000000000000000000000000000000000000000000000000020852727090000000000000000000000000000000000000000000000000000000000000000000000000000000000000000000000000000000000000000000000600000000000000000000000003f5bc15173e0463959fdef0dc3fb61d135665dd6000000000000000000000000000000000000000000000000000000000000002c736574426964526174696f2875696e743235362c75696e743235362c75696e743235362c75696e74323536290000000000000000000000000000000000000000, 0x7aaaae8b0000000000000000000000000000000000000000000000000000000000000020a0cce6390000000000000000000000000000000000000000000000000000000000000000000000000000000000000000000000000000000000000000000000600000000000000000000000003f5bc15173e0463959fdef0dc3fb61d135665dd6000000000000000000000000000000000000000000000000000000000000001f736574437574446563696d616c7328616464726573732c75696e743235362900, 0x7aaaae8b0000000000000000000000000000000000000000000000000000000000000020aaa24b200000000000000000000000000000000000000000000000000000000000000000000000000000000000000000000000000000000000000000000000600000000000000000000000003f5bc15173e0463959fdef0dc3fb61d135665dd6000000000000000000000000000000000000000000000000000000000000002c7365744561726c79556e6c6f636b526174696f2875696e743235362c75696e743235362c75696e74323536290000000000000000000000000000000000000000, 0x7aaaae8b00000000000000000000000000000000000000000000000000000000000000206b793add0000000000000000000000000000000000000000000000000000000000000000000000000000000000000000000000000000000000000000000000600000000000000000000000003f5bc15173e0463959fdef0dc3fb61d135665dd600000000000000000000000000000000000000000000000000000000000000327365744561726c79556e6c6f636b546f6b656e7328616464726573732c75696e743235362c75696e743235362c626f6f6c290000000000000000000000000000, 0x7aaaae8b00000000000000000000000000000000000000000000000000000000000000209b8d30640000000000000000000000000000000000000000000000000000000000000000000000000000000000000000000000000000000000000000000000600000000000000000000000003f5bc15173e0463959fdef0dc3fb61d135665dd6000000000000000000000000000000000000000000000000000000000000001373657446696e616e636528616464726573732900000000000000000000000000, 0x7aaaae8b000000000000000000000000000000000000000000000000000000000000002076e8651b0000000000000000000000000000000000000000000000000000000000000000000000000000000000000000000000000000000000000000000000600000000000000000000000003f5bc15173e0463959fdef0dc3fb61d135665dd600000000000000000000000000000000000000000000000000000000000000377365744c696e6b4f66666572526174696f732875696e74385b5d2c2875696e743235362c75696e743235362c75696e74323536295b5d29000000000000000000, 0x7aaaae8b0000000000000000000000000000000000000000000000000000000000000020ad36b68a0000000000000000000000000000000000000000000000000000000000000000000000000000000000000000000000000000000000000000000000600000000000000000000000003f5bc15173e0463959fdef0dc3fb61d135665dd600000000000000000000000000000000000000000000000000000000000000337365744d696e696d756d4973737565546f6b656e7328616464726573732c75696e743235362c75696e743235362c626f6f6c2900000000000000000000000000, 0x7aaaae8b0000000000000000000000000000000000000000000000000000000000000020bff5b2e30000000000000000000000000000000000000000000000000000000000000000000000000000000000000000000000000000000000000000000000600000000000000000000000003f5bc15173e0463959fdef0dc3fb61d135665dd600000000000000000000000000000000000000000000000000000000000000337365744f66666572526174696f732875696e74385b5d2c2875696e743235362c75696e743235362c75696e74323536295b5d2900000000000000000000000000, 0x7aaaae8b0000000000000000000000000000000000000000000000000000000000000020448952c40000000000000000000000000000000000000000000000000000000000000000000000000000000000000000000000000000000000000000000000600000000000000000000000003f5bc15173e0463959fdef0dc3fb61d135665dd6000000000000000000000000000000000000000000000000000000000000002f736574556e6c6f636b526174696f2875696e743235362c75696e743235362c75696e743235362c75696e74323536290000000000000000000000000000000000, 0x7aaaae8b00000000000000000000000000000000000000000000000000000000000000208d64e1dd0000000000000000000000000000000000000000000000000000000000000000000000000000000000000000000000000000000000000000000000600000000000000000000000003f5bc15173e0463959fdef0dc3fb61d135665dd6000000000000000000000000000000000000000000000000000000000000002d736574556e6c6f636b546f6b656e7328616464726573732c75696e743235362c75696e743235362c626f6f6c2900000000000000000000000000000000000000, 0x7aaaae8b000000000000000000000000000000000000000000000000000000000000002001ffc9a70000000000000000000000000000000000000000000000000000000000000000000000000000000000000000000000000000000000000000000000600000000000000000000000003f5bc15173e0463959fdef0dc3fb61d135665dd60000000000000000000000000000000000000000000000000000000000000019737570706f727473496e74657266616365286279746573342900000000000000, 0x7aaaae8b00000000000000000000000000000000000000000000000000000000000000205b61491f0000000000000000000000000000000000000000000000000000000000000000000000000000000000000000000000000000000000000000000000600000000000000000000000003f5bc15173e0463959fdef0dc3fb61d135665dd6000000000000000000000000000000000000000000000000000000000000001a77686974656c69737441707028616464726573732c626f6f6c29000000000000, 0x7aaaae8b00000000000000000000000000000000000000000000000000000000000000201e83409a000000000000000000000000000000000000000000000000000000000000000000000000000000000000000000000000000000000000000000000060000000000000000000000000a879b01204fbc5d75ba31f5d797a47416a17ea72000000000000000000000000000000000000000000000000000000000000000e636c61696d286164647265737329000000000000000000000000000000000000, 0x7aaaae8b000000000000000000000000000000000000000000000000000000000000002033bc3ccf000000000000000000000000000000000000000000000000000000000000000000000000000000000000000000000000000000000000000000000060000000000000000000000000a879b01204fbc5d75ba31f5d797a47416a17ea72000000000000000000000000000000000000000000000000000000000000001663726561746550726f66696c652875696e743235362900000000000000000000, 0x7aaaae8b0000000000000000000000000000000000000000000000000000000000000020f08f4f64000000000000000000000000000000000000000000000000000000000000000000000000000000000000000000000000000000000000000000000060000000000000000000000000a879b01204fbc5d75ba31f5d797a47416a17ea72000000000000000000000000000000000000000000000000000000000000001367657450726f66696c652875696e743235362900000000000000000000000000, 0x7aaaae8b00000000000000000000000000000000000000000000000000000000000000204cd6959c000000000000000000000000000000000000000000000000000000000000000000000000000000000000000000000000000000000000000000000060000000000000000000000000a879b01204fbc5d75ba31f5d797a47416a17ea72000000000000000000000000000000000000000000000000000000000000001c67657450726f66696c6542794164647265737328616464726573732900000000, 0x7aaaae8b00000000000000000000000000000000000000000000000000000000000000207ecebe00000000000000000000000000000000000000000000000000000000000000000000000000000000000000000000000000000000000000000000000060000000000000000000000000a879b01204fbc5d75ba31f5d797a47416a17ea72000000000000000000000000000000000000000000000000000000000000000f6e6f6e6365732861646472657373290000000000000000000000000000000000, 0x7aaaae8b00000000000000000000000000000000000000000000000000000000000000201b54cc88000000000000000000000000000000000000000000000000000000000000000000000000000000000000000000000000000000000000000000000060000000000000000000000000a879b01204fbc5d75ba31f5d797a47416a17ea7200000000000000000000000000000000000000000000000000000000000000167661756c7428616464726573732c616464726573732900000000000000000000, 0x7aaaae8b000000000000000000000000000000000000000000000000000000000000002006c5399f000000000000000000000000000000000000000000000000000000000000000000000000000000000000000000000000000000000000000000000060000000000000000000000000661bed734f2981621c14e60d758e3376e385158d000000000000000000000000000000000000000000000000000000000000001261736b57697368282875696e7432353629290000000000000000000000000000, 0x7aaaae8b0000000000000000000000000000000000000000000000000000000000000020e152bcfb000000000000000000000000000000000000000000000000000000000000000000000000000000000000000000000000000000000000000000000060000000000000000000000000661bed734f2981621c14e60d758e3376e385158d000000000000000000000000000000000000000000000000000000000000001262696457697368282875696e7432353629290000000000000000000000000000, 0x7aaaae8b000000000000000000000000000000000000000000000000000000000000002085bd7ebd000000000000000000000000000000000000000000000000000000000000000000000000000000000000000000000000000000000000000000000060000000000000000000000000661bed734f2981621c14e60d758e3376e385158d000000000000000000000000000000000000000000000000000000000000001a63757457697368282875696e743235362c75696e743235362929000000000000, 0x7aaaae8b0000000000000000000000000000000000000000000000000000000000000020202cbac2000000000000000000000000000000000000000000000000000000000000000000000000000000000000000000000000000000000000000000000060000000000000000000000000661bed734f2981621c14e60d758e3376e385158d0000000000000000000000000000000000000000000000000000000000000010676574576973682875696e743235362900000000000000000000000000000000, 0x7aaaae8b00000000000000000000000000000000000000000000000000000000000000208cdf4f37000000000000000000000000000000000000000000000000000000000000000000000000000000000000000000000000000000000000000000000060000000000000000000000000661bed734f2981621c14e60d758e3376e385158d000000000000000000000000000000000000000000000000000000000000000f67657457697368526174696f7328290000000000000000000000000000000000, 0x7aaaae8b0000000000000000000000000000000000000000000000000000000000000020bde1c45a000000000000000000000000000000000000000000000000000000000000000000000000000000000000000000000000000000000000000000000060000000000000000000000000661bed734f2981621c14e60d758e3376e385158d000000000000000000000000000000000000000000000000000000000000001567657457697368546f6b656e2861646472657373290000000000000000000000, 0x7aaaae8b0000000000000000000000000000000000000000000000000000000000000020ca745f7f000000000000000000000000000000000000000000000000000000000000000000000000000000000000000000000000000000000000000000000060000000000000000000000000661bed734f2981621c14e60d758e3376e385158d0000000000000000000000000000000000000000000000000000000000000047697373756557697368282875696e74382c626f6f6c2c28616464726573732c75696e743235362c75696e74323536292c75696e7436342c75696e7436342c75696e74323536292900000000000000000000000000000000000000000000000000, 0x7aaaae8b0000000000000000000000000000000000000000000000000000000000000020e07e360a000000000000000000000000000000000000000000000000000000000000000000000000000000000000000000000000000000000000000000000060000000000000000000000000661bed734f2981621c14e60d758e3376e385158d0000000000000000000000000000000000000000000000000000000000000053697373756557697368506c7567282875696e74382c626f6f6c2c28616464726573732c75696e743235362c75696e74323536292c75696e7436342c75696e7436342c75696e74323536292c616464726573732900000000000000000000000000, 0x7aaaae8b0000000000000000000000000000000000000000000000000000000000000020f83c213a000000000000000000000000000000000000000000000000000000000000000000000000000000000000000000000000000000000000000000000060000000000000000000000000661bed734f2981621c14e60d758e3376e385158d00000000000000000000000000000000000000000000000000000000000000246d6f6469667957697368282875696e743235362c75696e743235362c75696e743634292900000000000000000000000000000000000000000000000000000000, 0x7aaaae8b0000000000000000000000000000000000000000000000000000000000000020baea7a77000000000000000000000000000000000000000000000000000000000000000000000000000000000000000000000000000000000000000000000060000000000000000000000000661bed734f2981621c14e60d758e3376e385158d00000000000000000000000000000000000000000000000000000000000000146f66666572526174696f732875696e7432353629000000000000000000000000, 0x7aaaae8b00000000000000000000000000000000000000000000000000000000000000208d67acae000000000000000000000000000000000000000000000000000000000000000000000000000000000000000000000000000000000000000000000060000000000000000000000000661bed734f2981621c14e60d758e3376e385158d00000000000000000000000000000000000000000000000000000000000000206f66666572526174696f734279547970652875696e74382c75696e7432353629, 0x7aaaae8b000000000000000000000000000000000000000000000000000000000000002048e2b8be000000000000000000000000000000000000000000000000000000000000000000000000000000000000000000000000000000000000000000000060000000000000000000000000661bed734f2981621c14e60d758e3376e385158d00000000000000000000000000000000000000000000000000000000000000426f6666657257697368282875696e743235362c616464726573732c616464726573732c75696e7436342c75696e74323536292c2862797465732c75696e7436342929000000000000000000000000000000000000000000000000000000000000, 0x7aaaae8b0000000000000000000000000000000000000000000000000000000000000020b55fec59000000000000000000000000000000000000000000000000000000000000000000000000000000000000000000000000000000000000000000000060000000000000000000000000661bed734f2981621c14e60d758e3376e385158d0000000000000000000000000000000000000000000000000000000000000015726566756e6457697368282875696e7432353629290000000000000000000000, 0x7aaaae8b00000000000000000000000000000000000000000000000000000000000000202bb985ba000000000000000000000000000000000000000000000000000000000000000000000000000000000000000000000000000000000000000000000060000000000000000000000000661bed734f2981621c14e60d758e3376e385158d0000000000000000000000000000000000000000000000000000000000000034756e6c6f636b57697368282875696e743235362c616464726573732c75696e743235362c75696e743235362c75696e7436342929000000000000000000000000, 0x4cd88b760000000000000000000000000000000000000000000000000000000000000040000000000000000000000000000000000000000000000000000000000000008000000000000000000000000000000000000000000000000000000000000000045a45454b0000000000000000000000000000000000000000000000000000000000000000000000000000000000000000000000000000000000000000000000045a45454b00000000000000000000000000000000000000000000000000000000]"
      ],
      "transaction": {
        "from": "0xaeb4a045f2730f7794886dccf527202d61aa11b9",
        "to": "0xade2ba8068b27fae0da07dee0bf3a01f186277e0",
        "gas": "0x9d7040",
        "value": "0x0",
        "input": "0xac9650d800000000000000000000000000000000000000000000000000000000000000200000000000000000000000000000000000000000000000000000000000000029000000000000000000000000000000000000000000000000000000000000052000000000000000000000000000000000000000000000000000000000000006200000000000000000000000000000000000000000000000000000000000000720000000000000000000000000000000000000000000000000000000000000082000000000000000000000000000000000000000000000000000000000000009200000000000000000000000000000000000000000000000000000000000000a200000000000000000000000000000000000000000000000000000000000000b200000000000000000000000000000000000000000000000000000000000000c200000000000000000000000000000000000000000000000000000000000000d200000000000000000000000000000000000000000000000000000000000000e400000000000000000000000000000000000000000000000000000000000000f4000000000000000000000000000000000000000000000000000000000000010600000000000000000000000000000000000000000000000000000000000001180000000000000000000000000000000000000000000000000000000000000128000000000000000000000000000000000000000000000000000000000000013a000000000000000000000000000000000000000000000000000000000000014c000000000000000000000000000000000000000000000000000000000000015e00000000000000000000000000000000000000000000000000000000000001700000000000000000000000000000000000000000000000000000000000000182000000000000000000000000000000000000000000000000000000000000019200000000000000000000000000000000000000000000000000000000000001a200000000000000000000000000000000000000000000000000000000000001b200000000000000000000000000000000000000000000000000000000000001c200000000000000000000000000000000000000000000000000000000000001d200000000000000000000000000000000000000000000000000000000000001e200000000000000000000000000000000000000000000000000000000000001f200000000000000000000000000000000000000000000000000000000000002020000000000000000000000000000000000000000000000000000000000000212000000000000000000000000000000000000000000000000000000000000022200000000000000000000000000000000000000000000000000000000000002320000000000000000000000000000000000000000000000000000000000000242000000000000000000000000000000000000000000000000000000000000025200000000000000000000000000000000000000000000000000000000000002620000000000000000000000000000000000000000000000000000000000000276000000000000000000000000000000000000000000000000000000000000028a000000000000000000000000000000000000000000000000000000000000029c00000000000000000000000000000000000000000000000000000000000002ac00000000000000000000000000000000000000000000000000000000000002bc00000000000000000000000000000000000000000000000000000000000002d000000000000000000000000000000000000000000000000000000000000002e000000000000000000000000000000000000000000000000000000000000002f2000000000000000000000000000000000000000000000000000000000000000c47aaaae8b0000000000000000000000000000000000000000000000000000000000000020a217fddf0000000000000000000000000000000000000000000000000000000000000000000000000000000000000000000000000000000000000000000000600000000000000000000000003f5bc15173e0463959fdef0dc3fb61d135665dd6000000000000000000000000000000000000000000000000000000000000001444454641554c545f41444d494e5f524f4c4528290000000000000000000000000000000000000000000000000000000000000000000000000000000000000000000000000000000000000000000000000000000000000000000000c47aaaae8b000000000000000000000000000000000000000000000000000000000000002084b0196e0000000000000000000000000000000000000000000000000000000000000000000000000000000000000000000000000000000000000000000000600000000000000000000000003f5bc15173e0463959fdef0dc3fb61d135665dd6000000000000000000000000000000000000000000000000000000000000000e656970373132446f6d61696e28290000000000000000000000000000000000000000000000000000000000000000000000000000000000000000000000000000000000000000000000000000000000000000000000000000000000c47aaaae8b0000000000000000000000000000000000000000000000000000000000000020248a9ca30000000000000000000000000000000000000000000000000000000000000000000000000000000000000000000000000000000000000000000000600000000000000000000000003f5bc15173e0463959fdef0dc3fb61d135665dd60000000000000000000000000000000000000000000000000000000000000015676574526f6c6541646d696e28627974657333322900000000000000000000000000000000000000000000000000000000000000000000000000000000000000000000000000000000000000000000000000000000000000000000c47aaaae8b00000000000000000000000000000000000000000000000000000000000000202f2ff15d0000000000000000000000000000000000000000000000000000000000000000000000000000000000000000000000000000000000000000000000600000000000000000000000003f5bc15173e0463959fdef0dc3fb61d135665dd6000000000000000000000000000000000000000000000000000000000000001a6772616e74526f6c6528627974657333322c61646472657373290000000000000000000000000000000000000000000000000000000000000000000000000000000000000000000000000000000000000000000000000000000000c47aaaae8b000000000000000000000000000000000000000000000000000000000000002091d148540000000000000000000000000000000000000000000000000000000000000000000000000000000000000000000000000000000000000000000000600000000000000000000000003f5bc15173e0463959fdef0dc3fb61d135665dd60000000000000000000000000000000000000000000000000000000000000018686173526f6c6528627974657333322c616464726573732900000000000000000000000000000000000000000000000000000000000000000000000000000000000000000000000000000000000000000000000000000000000000c47aaaae8b00000000000000000000000000000000000000000000000000000000000000204cd88b760000000000000000000000000000000000000000000000000000000000000000000000000000000000000000000000000000000000000000000000600000000000000000000000003f5bc15173e0463959fdef0dc3fb61d135665dd60000000000000000000000000000000000000000000000000000000000000019696e697469616c697a6528737472696e672c737472696e6729000000000000000000000000000000000000000000000000000000000000000000000000000000000000000000000000000000000000000000000000000000000000c47aaaae8b000000000000000000000000000000000000000000000000000000000000002036568abe0000000000000000000000000000000000000000000000000000000000000000000000000000000000000000000000000000000000000000000000600000000000000000000000003f5bc15173e0463959fdef0dc3fb61d135665dd6000000000000000000000000000000000000000000000000000000000000001d72656e6f756e6365526f6c6528627974657333322c61646472657373290000000000000000000000000000000000000000000000000000000000000000000000000000000000000000000000000000000000000000000000000000c47aaaae8b0000000000000000000000000000000000000000000000000000000000000020d547741f0000000000000000000000000000000000000000000000000000000000000000000000000000000000000000000000000000000000000000000000600000000000000000000000003f5bc15173e0463959fdef0dc3fb61d135665dd6000000000000000000000000000000000000000000000000000000000000001b7265766f6b65526f6c6528627974657333322c616464726573732900000000000000000000000000000000000000000000000000000000000000000000000000000000000000000000000000000000000000000000000000000000e47aaaae8b0000000000000000000000000000000000000000000000000000000000000020852727090000000000000000000000000000000000000000000000000000000000000000000000000000000000000000000000000000000000000000000000600000000000000000000000003f5bc15173e0463959fdef0dc3fb61d135665dd6000000000000000000000000000000000000000000000000000000000000002c736574426964526174696f2875696e743235362c75696e743235362c75696e743235362c75696e743235362900000000000000000000000000000000000000000000000000000000000000000000000000000000000000000000000000000000000000000000000000000000000000000000000000000000000000c47aaaae8b0000000000000000000000000000000000000000000000000000000000000020a0cce6390000000000000000000000000000000000000000000000000000000000000000000000000000000000000000000000000000000000000000000000600000000000000000000000003f5bc15173e0463959fdef0dc3fb61d135665dd6000000000000000000000000000000000000000000000000000000000000001f736574437574446563696d616c7328616464726573732c75696e7432353629000000000000000000000000000000000000000000000000000000000000000000000000000000000000000000000000000000000000000000000000e47aaaae8b0000000000000000000000000000000000000000000000000000000000000020aaa24b200000000000000000000000000000000000000000000000000000000000000000000000000000000000000000000000000000000000000000000000600000000000000000000000003f5bc15173e0463959fdef0dc3fb61d135665dd6000000000000000000000000000000000000000000000000000000000000002c7365744561726c79556e6c6f636b526174696f2875696e743235362c75696e743235362c75696e743235362900000000000000000000000000000000000000000000000000000000000000000000000000000000000000000000000000000000000000000000000000000000000000000000000000000000000000e47aaaae8b00000000000000000000000000000000000000000000000000000000000000206b793add0000000000000000000000000000000000000000000000000000000000000000000000000000000000000000000000000000000000000000000000600000000000000000000000003f5bc15173e0463959fdef0dc3fb61d135665dd600000000000000000000000000000000000000000000000000000000000000327365744561726c79556e6c6f636b546f6b656e7328616464726573732c75696e743235362c75696e743235362c626f6f6c2900000000000000000000000000000000000000000000000000000000000000000000000000000000000000000000000000000000000000000000000000000000000000000000000000c47aaaae8b00000000000000000000000000000000000000000000000000000000000000209b8d30640000000000000000000000000000000000000000000000000000000000000000000000000000000000000000000000000000000000000000000000600000000000000000000000003f5bc15173e0463959fdef0dc3fb61d135665dd6000000000000000000000000000000000000000000000000000000000000001373657446696e616e6365286164647265737329000000000000000000000000000000000000000000000000000000000000000000000000000000000000000000000000000000000000000000000000000000000000000000000000e47aaaae8b000000000000000000000000000000000000000000000000000000000000002076e8651b0000000000000000000000000000000000000000000000000000000000000000000000000000000000000000000000000000000000000000000000600000000000000000000000003f5bc15173e0463959fdef0dc3fb61d135665dd600000000000000000000000000000000000000000000000000000000000000377365744c696e6b4f66666572526174696f732875696e74385b5d2c2875696e743235362c75696e743235362c75696e74323536295b5d290000000000000000000000000000000000000000000000000000000000000000000000000000000000000000000000000000000000000000000000000000000000000000e47aaaae8b0000000000000000000000000000000000000000000000000000000000000020ad36b68a0000000000000000000000000000000000000000000000000000000000000000000000000000000000000000000000000000000000000000000000600000000000000000000000003f5bc15173e0463959fdef0dc3fb61d135665dd600000000000000000000000000000000000000000000000000000000000000337365744d696e696d756d4973737565546f6b656e7328616464726573732c75696e743235362c75696e743235362c626f6f6c29000000000000000000000000000000000000000000000000000000000000000000000000000000000000000000000000000000000000000000000000000000000000000000000000e47aaaae8b0000000000000000000000000000000000000000000000000000000000000020bff5b2e30000000000000000000000000000000000000000000000000000000000000000000000000000000000000000000000000000000000000000000000600000000000000000000000003f5bc15173e0463959fdef0dc3fb61d135665dd600000000000000000000000000000000000000000000000000000000000000337365744f66666572526174696f732875696e74385b5d2c2875696e743235362c75696e743235362c75696e74323536295b5d29000000000000000000000000000000000000000000000000000000000000000000000000000000000000000000000000000000000000000000000000000000000000000000000000e47aaaae8b0000000000000000000000000000000000000000000000000000000000000020448952c40000000000000000000000000000000000000000000000000000000000000000000000000000000000000000000000000000000000000000000000600000000000000000000000003f5bc15173e0463959fdef0dc3fb61d135665dd6000000000000000000000000000000000000000000000000000000000000002f736574556e6c6f636b526174696f2875696e743235362c75696e743235362c75696e743235362c75696e743235362900000000000000000000000000000000000000000000000000000000000000000000000000000000000000000000000000000000000000000000000000000000000000000000000000000000e47aaaae8b00000000000000000000000000000000000000000000000000000000000000208d64e1dd0000000000000000000000000000000000000000000000000000000000000000000000000000000000000000000000000000000000000000000000600000000000000000000000003f5bc15173e0463959fdef0dc3fb61d135665dd6000000000000000000000000000000000000000000000000000000000000002d736574556e6c6f636b546f6b656e7328616464726573732c75696e743235362c75696e743235362c626f6f6c29000000000000000000000000000000000000000000000000000000000000000000000000000000000000000000000000000000000000000000000000000000000000000000000000000000000000c47aaaae8b000000000000000000000000000000000000000000000000000000000000002001ffc9a70000000000000000000000000000000000000000000000000000000000000000000000000000000000000000000000000000000000000000000000600000000000000000000000003f5bc15173e0463959fdef0dc3fb61d135665dd60000000000000000000000000000000000000000000000000000000000000019737570706f727473496e746572666163652862797465733429000000000000000000000000000000000000000000000000000000000000000000000000000000000000000000000000000000000000000000000000000000000000c47aaaae8b00000000000000000000000000000000000000000000000000000000000000205b61491f0000000000000000000000000000000000000000000000000000000000000000000000000000000000000000000000000000000000000000000000600000000000000000000000003f5bc15173e0463959fdef0dc3fb61d135665dd6000000000000000000000000000000000000000000000000000000000000001a77686974656c69737441707028616464726573732c626f6f6c290000000000000000000000000000000000000000000000000000000000000000000000000000000000000000000000000000000000000000000000000000000000c47aaaae8b00000000000000000000000000000000000000000000000000000000000000201e83409a000000000000000000000000000000000000000000000000000000000000000000000000000000000000000000000000000000000000000000000060000000000000000000000000a879b01204fbc5d75ba31f5d797a47416a17ea72000000000000000000000000000000000000000000000000000000000000000e636c61696d2861646472657373290000000000000000000000000000000000000000000000000000000000000000000000000000000000000000000000000000000000000000000000000000000000000000000000000000000000c47aaaae8b000000000000000000000000000000000000000000000000000000000000002033bc3ccf000000000000000000000000000000000000000000000000000000000000000000000000000000000000000000000000000000000000000000000060000000000000000000000000a879b01204fbc5d75ba31f5d797a47416a17ea72000000000000000000000000000000000000000000000000000000000000001663726561746550726f66696c652875696e7432353629000000000000000000000000000000000000000000000000000000000000000000000000000000000000000000000000000000000000000000000000000000000000000000c47aaaae8b0000000000000000000000000000000000000000000000000000000000000020f08f4f64000000000000000000000000000000000000000000000000000000000000000000000000000000000000000000000000000000000000000000000060000000000000000000000000a879b01204fbc5d75ba31f5d797a47416a17ea72000000000000000000000000000000000000000000000000000000000000001367657450726f66696c652875696e7432353629000000000000000000000000000000000000000000000000000000000000000000000000000000000000000000000000000000000000000000000000000000000000000000000000c47aaaae8b00000000000000000000000000000000000000000000000000000000000000204cd6959c000000000000000000000000000000000000000000000000000000000000000000000000000000000000000000000000000000000000000000000060000000000000000000000000a879b01204fbc5d75ba31f5d797a47416a17ea72000000000000000000000000000000000000000000000000000000000000001c67657450726f66696c65427941646472657373286164647265737329000000000000000000000000000000000000000000000000000000000000000000000000000000000000000000000000000000000000000000000000000000c47aaaae8b00000000000000000000000000000000000000000000000000000000000000207ecebe00000000000000000000000000000000000000000000000000000000000000000000000000000000000000000000000000000000000000000000000060000000000000000000000000a879b01204fbc5d75ba31f5d797a47416a17ea72000000000000000000000000000000000000000000000000000000000000000f6e6f6e63657328616464726573732900000000000000000000000000000000000000000000000000000000000000000000000000000000000000000000000000000000000000000000000000000000000000000000000000000000c47aaaae8b00000000000000000000000000000000000000000000000000000000000000201b54cc88000000000000000000000000000000000000000000000000000000000000000000000000000000000000000000000000000000000000000000000060000000000000000000000000a879b01204fbc5d75ba31f5d797a47416a17ea7200000000000000000000000000000000000000000000000000000000000000167661756c7428616464726573732c6164647265737329000000000000000000000000000000000000000000000000000000000000000000000000000000000000000000000000000000000000000000000000000000000000000000c47aaaae8b000000000000000000000000000000000000000000000000000000000000002006c5399f000000000000000000000000000000000000000000000000000000000000000000000000000000000000000000000000000000000000000000000060000000000000000000000000661bed734f2981621c14e60d758e3376e385158d000000000000000000000000000000000000000000000000000000000000001261736b57697368282875696e74323536292900000000000000000000000000000000000000000000000000000000000000000000000000000000000000000000000000000000000000000000000000000000000000000000000000c47aaaae8b0000000000000000000000000000000000000000000000000000000000000020e152bcfb000000000000000000000000000000000000000000000000000000000000000000000000000000000000000000000000000000000000000000000060000000000000000000000000661bed734f2981621c14e60d758e3376e385158d000000000000000000000000000000000000000000000000000000000000001262696457697368282875696e74323536292900000000000000000000000000000000000000000000000000000000000000000000000000000000000000000000000000000000000000000000000000000000000000000000000000c47aaaae8b000000000000000000000000000000000000000000000000000000000000002085bd7ebd000000000000000000000000000000000000000000000000000000000000000000000000000000000000000000000000000000000000000000000060000000000000000000000000661bed734f2981621c14e60d758e3376e385158d000000000000000000000000000000000000000000000000000000000000001a63757457697368282875696e743235362c75696e7432353629290000000000000000000000000000000000000000000000000000000000000000000000000000000000000000000000000000000000000000000000000000000000c47aaaae8b0000000000000000000000000000000000000000000000000000000000000020202cbac2000000000000000000000000000000000000000000000000000000000000000000000000000000000000000000000000000000000000000000000060000000000000000000000000661bed734f2981621c14e60d758e3376e385158d0000000000000000000000000000000000000000000000000000000000000010676574576973682875696e7432353629000000000000000000000000000000000000000000000000000000000000000000000000000000000000000000000000000000000000000000000000000000000000000000000000000000c47aaaae8b00000000000000000000000000000000000000000000000000000000000000208cdf4f37000000000000000000000000000000000000000000000000000000000000000000000000000000000000000000000000000000000000000000000060000000000000000000000000661bed734f2981621c14e60d758e3376e385158d000000000000000000000000000000000000000000000000000000000000000f67657457697368526174696f73282900000000000000000000000000000000000000000000000000000000000000000000000000000000000000000000000000000000000000000000000000000000000000000000000000000000c47aaaae8b0000000000000000000000000000000000000000000000000000000000000020bde1c45a000000000000000000000000000000000000000000000000000000000000000000000000000000000000000000000000000000000000000000000060000000000000000000000000661bed734f2981621c14e60d758e3376e385158d000000000000000000000000000000000000000000000000000000000000001567657457697368546f6b656e28616464726573732900000000000000000000000000000000000000000000000000000000000000000000000000000000000000000000000000000000000000000000000000000000000000000001047aaaae8b0000000000000000000000000000000000000000000000000000000000000020ca745f7f000000000000000000000000000000000000000000000000000000000000000000000000000000000000000000000000000000000000000000000060000000000000000000000000661bed734f2981621c14e60d758e3376e385158d0000000000000000000000000000000000000000000000000000000000000047697373756557697368282875696e74382c626f6f6c2c28616464726573732c75696e743235362c75696e74323536292c75696e7436342c75696e7436342c75696e743235362929000000000000000000000000000000000000000000000000000000000000000000000000000000000000000000000000000000000000000000000000000000000000000000000000000000000000000000000001047aaaae8b0000000000000000000000000000000000000000000000000000000000000020e07e360a000000000000000000000000000000000000000000000000000000000000000000000000000000000000000000000000000000000000000000000060000000000000000000000000661bed734f2981621c14e60d758e3376e385158d0000000000000000000000000000000000000000000000000000000000000053697373756557697368506c7567282875696e74382c626f6f6c2c28616464726573732c75696e743235362c75696e74323536292c75696e7436342c75696e7436342c75696e74323536292c6164647265737329000000000000000000000000000000000000000000000000000000000000000000000000000000000000000000000000000000000000000000000000000000000000000000000000e47aaaae8b0000000000000000000000000000000000000000000000000000000000000020f83c213a000000000000000000000000000000000000000000000000000000000000000000000000000000000000000000000000000000000000000000000060000000000000000000000000661bed734f2981621c14e60d758e3376e385158d00000000000000000000000000000000000000000000000000000000000000246d6f6469667957697368282875696e743235362c75696e743235362c75696e7436342929000000000000000000000000000000000000000000000000000000000000000000000000000000000000000000000000000000000000000000000000000000000000000000000000000000000000000000000000000000c47aaaae8b0000000000000000000000000000000000000000000000000000000000000020baea7a77000000000000000000000000000000000000000000000000000000000000000000000000000000000000000000000000000000000000000000000060000000000000000000000000661bed734f2981621c14e60d758e3376e385158d00000000000000000000000000000000000000000000000000000000000000146f66666572526174696f732875696e74323536290000000000000000000000000000000000000000000000000000000000000000000000000000000000000000000000000000000000000000000000000000000000000000000000c47aaaae8b00000000000000000000000000000000000000000000000000000000000000208d67acae000000000000000000000000000000000000000000000000000000000000000000000000000000000000000000000000000000000000000000000060000000000000000000000000661bed734f2981621c14e60d758e3376e385158d00000000000000000000000000000000000000000000000000000000000000206f66666572526174696f734279547970652875696e74382c75696e74323536290000000000000000000000000000000000000000000000000000000000000000000000000000000000000000000000000000000000000000000001047aaaae8b000000000000000000000000000000000000000000000000000000000000002048e2b8be000000000000000000000000000000000000000000000000000000000000000000000000000000000000000000000000000000000000000000000060000000000000000000000000661bed734f2981621c14e60d758e3376e385158d00000000000000000000000000000000000000000000000000000000000000426f6666657257697368282875696e743235362c616464726573732c616464726573732c75696e7436342c75696e74323536292c2862797465732c75696e74363429290000000000000000000000000000000000000000000000000000000000000000000000000000000000000000000000000000000000000000000000000000000000000000000000000000000000000000000000000000000000c47aaaae8b0000000000000000000000000000000000000000000000000000000000000020b55fec59000000000000000000000000000000000000000000000000000000000000000000000000000000000000000000000000000000000000000000000060000000000000000000000000661bed734f2981621c14e60d758e3376e385158d0000000000000000000000000000000000000000000000000000000000000015726566756e6457697368282875696e74323536292900000000000000000000000000000000000000000000000000000000000000000000000000000000000000000000000000000000000000000000000000000000000000000000e47aaaae8b00000000000000000000000000000000000000000000000000000000000000202bb985ba000000000000000000000000000000000000000000000000000000000000000000000000000000000000000000000000000000000000000000000060000000000000000000000000661bed734f2981621c14e60d758e3376e385158d0000000000000000000000000000000000000000000000000000000000000034756e6c6f636b57697368282875696e743235362c616464726573732c75696e743235362c75696e743235362c75696e74363429290000000000000000000000000000000000000000000000000000000000000000000000000000000000000000000000000000000000000000000000000000000000000000000000c44cd88b760000000000000000000000000000000000000000000000000000000000000040000000000000000000000000000000000000000000000000000000000000008000000000000000000000000000000000000000000000000000000000000000045a45454b0000000000000000000000000000000000000000000000000000000000000000000000000000000000000000000000000000000000000000000000045a45454b0000000000000000000000000000000000000000000000000000000000000000000000000000000000000000000000000000000000000000",
        "nonce": "0xcc",
        "chainId": "0x14a34"
      },
      "additionalContracts": [],
      "isFixedGasLimit": false
    }
  ],
  "receipts": [
    {
      "status": "0x1",
      "cumulativeGasUsed": "0x10dd7d4",
      "logs": [
        {
          "address": "0xade2ba8068b27fae0da07dee0bf3a01f186277e0",
          "topics": [
            "0x7e644d79422f17c01e4894b5f4f588d331ebfa28653d42ae832dc59e38c9798f"
          ],
          "data": "0x0000000000000000000000000000000000000000000000000000000000000000000000000000000000000000aeb4a045f2730f7794886dccf527202d61aa11b9",
          "blockHash": "0x6cb1711045293daf56eb5a944bdfb6c182940a5fd90b59c1a51839dea8a5a4e9",
          "blockNumber": "0xaf94b1",
          "transactionHash": "0xebb6112705171c051486194c2804bfd383e07c59e534fd88f55d1b1405e8e1f7",
          "transactionIndex": "0x23",
          "logIndex": "0x1cc",
          "removed": false
        }
      ],
      "logsBloom": "0x00000000000000000000000000000000000000000000000000000000000000000000000000000000000000000000000000000000000000000000000000000000000000000000000000000000000000000000000000000000000000000000000000000000000000000000000000000000000000800000000000000000000000000000000000000000000000000000000000000000000000000000000000800000000000000000000000000000000000000000000000000000000000000000000000000000000010000000000000000008000000000400000000000000000000000000000000000000000000000010000000000000000000000000000000000000",
      "type": "0x2",
      "transactionHash": "0xebb6112705171c051486194c2804bfd383e07c59e534fd88f55d1b1405e8e1f7",
      "transactionIndex": "0x23",
      "blockHash": "0x6cb1711045293daf56eb5a944bdfb6c182940a5fd90b59c1a51839dea8a5a4e9",
      "blockNumber": "0xaf94b1",
      "gasUsed": "0x179945",
      "effectiveGasPrice": "0x187fb",
      "from": "0xaeb4a045f2730f7794886dccf527202d61aa11b9",
      "to": null,
      "contractAddress": "0xade2ba8068b27fae0da07dee0bf3a01f186277e0",
      "l1BaseFeeScalar": "0x44d",
      "l1BlobBaseFee": "0x1",
      "l1BlobBaseFeeScalar": "0xa118b",
      "l1Fee": "0x8b17b32",
      "l1GasPrice": "0x1f7667",
      "l1GasUsed": "0xfaf4"
    },
    {
      "status": "0x1",
      "cumulativeGasUsed": "0x12595e9",
      "logs": [],
      "logsBloom": "0x00000000000000000000000000000000000000000000000000000000000000000000000000000000000000000000000000000000000000000000000000000000000000000000000000000000000000000000000000000000000000000000000000000000000000000000000000000000000000000000000000000000000000000000000000000000000000000000000000000000000000000000000000000000000000000000000000000000000000000000000000000000000000000000000000000000000000000000000000000000000000000000000000000000000000000000000000000000000000000000000000000000000000000000000000000000",
      "type": "0x2",
      "transactionHash": "0xb776da508a11f81addc3f1fbcfa1c0ccc345acffb38507fc139729cd0c63f7d1",
      "transactionIndex": "0x24",
      "blockHash": "0x6cb1711045293daf56eb5a944bdfb6c182940a5fd90b59c1a51839dea8a5a4e9",
      "blockNumber": "0xaf94b1",
      "gasUsed": "0x17be15",
      "effectiveGasPrice": "0x187fb",
      "from": "0xaeb4a045f2730f7794886dccf527202d61aa11b9",
      "to": null,
      "contractAddress": "0x3f5bc15173e0463959fdef0dc3fb61d135665dd6",
      "l1BaseFeeScalar": "0x44d",
      "l1BlobBaseFee": "0x1",
      "l1BlobBaseFeeScalar": "0xa118b",
      "l1Fee": "0x86befaf",
      "l1GasPrice": "0x1f7667",
      "l1GasUsed": "0xf31c"
    },
    {
      "status": "0x1",
      "cumulativeGasUsed": "0x13490f5",
      "logs": [],
      "logsBloom": "0x00000000000000000000000000000000000000000000000000000000000000000000000000000000000000000000000000000000000000000000000000000000000000000000000000000000000000000000000000000000000000000000000000000000000000000000000000000000000000000000000000000000000000000000000000000000000000000000000000000000000000000000000000000000000000000000000000000000000000000000000000000000000000000000000000000000000000000000000000000000000000000000000000000000000000000000000000000000000000000000000000000000000000000000000000000000",
      "type": "0x2",
      "transactionHash": "0xe0b5dd1fc4789511fc0e47b3029b8844d3f0fc68dda10e95301aab70dd994983",
      "transactionIndex": "0x25",
      "blockHash": "0x6cb1711045293daf56eb5a944bdfb6c182940a5fd90b59c1a51839dea8a5a4e9",
      "blockNumber": "0xaf94b1",
      "gasUsed": "0xefb0c",
      "effectiveGasPrice": "0x187fb",
      "from": "0xaeb4a045f2730f7794886dccf527202d61aa11b9",
      "to": null,
      "contractAddress": "0xa879b01204fbc5d75ba31f5d797a47416a17ea72",
      "l1BaseFeeScalar": "0x44d",
      "l1BlobBaseFee": "0x1",
      "l1BlobBaseFeeScalar": "0xa118b",
      "l1Fee": "0x5ca46fc",
      "l1GasPrice": "0x1f7667",
      "l1GasUsed": "0xa725"
    },
    {
      "status": "0x1",
      "cumulativeGasUsed": "0x41024d",
      "logs": [],
      "logsBloom": "0x00000000000000000000000000000000000000000000000000000000000000000000000000000000000000000000000000000000000000000000000000000000000000000000000000000000000000000000000000000000000000000000000000000000000000000000000000000000000000000000000000000000000000000000000000000000000000000000000000000000000000000000000000000000000000000000000000000000000000000000000000000000000000000000000000000000000000000000000000000000000000000000000000000000000000000000000000000000000000000000000000000000000000000000000000000000",
      "type": "0x2",
      "transactionHash": "0x6bac00a0ef87adbebe30ce86d04cf1fc07e7ce30757fae03f5d55e5cacf2b2fc",
      "transactionIndex": "0xe",
      "blockHash": "0xa689181460f5559da865dce9d774546c4697e5fe4222fc228914f02ce6989e95",
      "blockNumber": "0xaf94b2",
      "gasUsed": "0x327772",
      "effectiveGasPrice": "0x187ff",
      "from": "0xaeb4a045f2730f7794886dccf527202d61aa11b9",
      "to": null,
      "contractAddress": "0x661bed734f2981621c14e60d758e3376e385158d",
      "l1BaseFeeScalar": "0x44d",
      "l1BlobBaseFee": "0x1",
      "l1BlobBaseFeeScalar": "0xa118b",
      "l1Fee": "0x11ee02a7",
      "l1GasPrice": "0x1f7667",
      "l1GasUsed": "0x20596"
    },
    {
      "status": "0x1",
      "cumulativeGasUsed": "0xb2fdda",
      "logs": [
        {
          "address": "0xade2ba8068b27fae0da07dee0bf3a01f186277e0",
          "topics": [
            "0xb8d3168400543cb1f93defbb510faf4f210a8165083daa84f56c93275659d21b",
            "0xa217fddf00000000000000000000000000000000000000000000000000000000",
            "0x0000000000000000000000003f5bc15173e0463959fdef0dc3fb61d135665dd6"
          ],
          "data": "0x",
          "blockHash": "0xa689181460f5559da865dce9d774546c4697e5fe4222fc228914f02ce6989e95",
          "blockNumber": "0xaf94b2",
          "transactionHash": "0xd83aa0da770bb20ba0a899e7f4ab08a4ef4b4e2a03cc8c59cc02bded1df2d65d",
          "transactionIndex": "0xf",
          "logIndex": "0xd",
          "removed": false
        },
        {
          "address": "0xade2ba8068b27fae0da07dee0bf3a01f186277e0",
          "topics": [
            "0xb8d3168400543cb1f93defbb510faf4f210a8165083daa84f56c93275659d21b",
            "0x84b0196e00000000000000000000000000000000000000000000000000000000",
            "0x0000000000000000000000003f5bc15173e0463959fdef0dc3fb61d135665dd6"
          ],
          "data": "0x",
          "blockHash": "0xa689181460f5559da865dce9d774546c4697e5fe4222fc228914f02ce6989e95",
          "blockNumber": "0xaf94b2",
          "transactionHash": "0xd83aa0da770bb20ba0a899e7f4ab08a4ef4b4e2a03cc8c59cc02bded1df2d65d",
          "transactionIndex": "0xf",
          "logIndex": "0xe",
          "removed": false
        },
        {
          "address": "0xade2ba8068b27fae0da07dee0bf3a01f186277e0",
          "topics": [
            "0xb8d3168400543cb1f93defbb510faf4f210a8165083daa84f56c93275659d21b",
            "0x248a9ca300000000000000000000000000000000000000000000000000000000",
            "0x0000000000000000000000003f5bc15173e0463959fdef0dc3fb61d135665dd6"
          ],
          "data": "0x",
          "blockHash": "0xa689181460f5559da865dce9d774546c4697e5fe4222fc228914f02ce6989e95",
          "blockNumber": "0xaf94b2",
          "transactionHash": "0xd83aa0da770bb20ba0a899e7f4ab08a4ef4b4e2a03cc8c59cc02bded1df2d65d",
          "transactionIndex": "0xf",
          "logIndex": "0xf",
          "removed": false
        },
        {
          "address": "0xade2ba8068b27fae0da07dee0bf3a01f186277e0",
          "topics": [
            "0xb8d3168400543cb1f93defbb510faf4f210a8165083daa84f56c93275659d21b",
            "0x2f2ff15d00000000000000000000000000000000000000000000000000000000",
            "0x0000000000000000000000003f5bc15173e0463959fdef0dc3fb61d135665dd6"
          ],
          "data": "0x",
          "blockHash": "0xa689181460f5559da865dce9d774546c4697e5fe4222fc228914f02ce6989e95",
          "blockNumber": "0xaf94b2",
          "transactionHash": "0xd83aa0da770bb20ba0a899e7f4ab08a4ef4b4e2a03cc8c59cc02bded1df2d65d",
          "transactionIndex": "0xf",
          "logIndex": "0x10",
          "removed": false
        },
        {
          "address": "0xade2ba8068b27fae0da07dee0bf3a01f186277e0",
          "topics": [
            "0xb8d3168400543cb1f93defbb510faf4f210a8165083daa84f56c93275659d21b",
            "0x91d1485400000000000000000000000000000000000000000000000000000000",
            "0x0000000000000000000000003f5bc15173e0463959fdef0dc3fb61d135665dd6"
          ],
          "data": "0x",
          "blockHash": "0xa689181460f5559da865dce9d774546c4697e5fe4222fc228914f02ce6989e95",
          "blockNumber": "0xaf94b2",
          "transactionHash": "0xd83aa0da770bb20ba0a899e7f4ab08a4ef4b4e2a03cc8c59cc02bded1df2d65d",
          "transactionIndex": "0xf",
          "logIndex": "0x11",
          "removed": false
        },
        {
          "address": "0xade2ba8068b27fae0da07dee0bf3a01f186277e0",
          "topics": [
            "0xb8d3168400543cb1f93defbb510faf4f210a8165083daa84f56c93275659d21b",
            "0x4cd88b7600000000000000000000000000000000000000000000000000000000",
            "0x0000000000000000000000003f5bc15173e0463959fdef0dc3fb61d135665dd6"
          ],
          "data": "0x",
          "blockHash": "0xa689181460f5559da865dce9d774546c4697e5fe4222fc228914f02ce6989e95",
          "blockNumber": "0xaf94b2",
          "transactionHash": "0xd83aa0da770bb20ba0a899e7f4ab08a4ef4b4e2a03cc8c59cc02bded1df2d65d",
          "transactionIndex": "0xf",
          "logIndex": "0x12",
          "removed": false
        },
        {
          "address": "0xade2ba8068b27fae0da07dee0bf3a01f186277e0",
          "topics": [
            "0xb8d3168400543cb1f93defbb510faf4f210a8165083daa84f56c93275659d21b",
            "0x36568abe00000000000000000000000000000000000000000000000000000000",
            "0x0000000000000000000000003f5bc15173e0463959fdef0dc3fb61d135665dd6"
          ],
          "data": "0x",
          "blockHash": "0xa689181460f5559da865dce9d774546c4697e5fe4222fc228914f02ce6989e95",
          "blockNumber": "0xaf94b2",
          "transactionHash": "0xd83aa0da770bb20ba0a899e7f4ab08a4ef4b4e2a03cc8c59cc02bded1df2d65d",
          "transactionIndex": "0xf",
          "logIndex": "0x13",
          "removed": false
        },
        {
          "address": "0xade2ba8068b27fae0da07dee0bf3a01f186277e0",
          "topics": [
            "0xb8d3168400543cb1f93defbb510faf4f210a8165083daa84f56c93275659d21b",
            "0xd547741f00000000000000000000000000000000000000000000000000000000",
            "0x0000000000000000000000003f5bc15173e0463959fdef0dc3fb61d135665dd6"
          ],
          "data": "0x",
          "blockHash": "0xa689181460f5559da865dce9d774546c4697e5fe4222fc228914f02ce6989e95",
          "blockNumber": "0xaf94b2",
          "transactionHash": "0xd83aa0da770bb20ba0a899e7f4ab08a4ef4b4e2a03cc8c59cc02bded1df2d65d",
          "transactionIndex": "0xf",
          "logIndex": "0x14",
          "removed": false
        },
        {
          "address": "0xade2ba8068b27fae0da07dee0bf3a01f186277e0",
          "topics": [
            "0xb8d3168400543cb1f93defbb510faf4f210a8165083daa84f56c93275659d21b",
            "0x8527270900000000000000000000000000000000000000000000000000000000",
            "0x0000000000000000000000003f5bc15173e0463959fdef0dc3fb61d135665dd6"
          ],
          "data": "0x",
          "blockHash": "0xa689181460f5559da865dce9d774546c4697e5fe4222fc228914f02ce6989e95",
          "blockNumber": "0xaf94b2",
          "transactionHash": "0xd83aa0da770bb20ba0a899e7f4ab08a4ef4b4e2a03cc8c59cc02bded1df2d65d",
          "transactionIndex": "0xf",
          "logIndex": "0x15",
          "removed": false
        },
        {
          "address": "0xade2ba8068b27fae0da07dee0bf3a01f186277e0",
          "topics": [
            "0xb8d3168400543cb1f93defbb510faf4f210a8165083daa84f56c93275659d21b",
            "0xa0cce63900000000000000000000000000000000000000000000000000000000",
            "0x0000000000000000000000003f5bc15173e0463959fdef0dc3fb61d135665dd6"
          ],
          "data": "0x",
          "blockHash": "0xa689181460f5559da865dce9d774546c4697e5fe4222fc228914f02ce6989e95",
          "blockNumber": "0xaf94b2",
          "transactionHash": "0xd83aa0da770bb20ba0a899e7f4ab08a4ef4b4e2a03cc8c59cc02bded1df2d65d",
          "transactionIndex": "0xf",
          "logIndex": "0x16",
          "removed": false
        },
        {
          "address": "0xade2ba8068b27fae0da07dee0bf3a01f186277e0",
          "topics": [
            "0xb8d3168400543cb1f93defbb510faf4f210a8165083daa84f56c93275659d21b",
            "0xaaa24b2000000000000000000000000000000000000000000000000000000000",
            "0x0000000000000000000000003f5bc15173e0463959fdef0dc3fb61d135665dd6"
          ],
          "data": "0x",
          "blockHash": "0xa689181460f5559da865dce9d774546c4697e5fe4222fc228914f02ce6989e95",
          "blockNumber": "0xaf94b2",
          "transactionHash": "0xd83aa0da770bb20ba0a899e7f4ab08a4ef4b4e2a03cc8c59cc02bded1df2d65d",
          "transactionIndex": "0xf",
          "logIndex": "0x17",
          "removed": false
        },
        {
          "address": "0xade2ba8068b27fae0da07dee0bf3a01f186277e0",
          "topics": [
            "0xb8d3168400543cb1f93defbb510faf4f210a8165083daa84f56c93275659d21b",
            "0x6b793add00000000000000000000000000000000000000000000000000000000",
            "0x0000000000000000000000003f5bc15173e0463959fdef0dc3fb61d135665dd6"
          ],
          "data": "0x",
          "blockHash": "0xa689181460f5559da865dce9d774546c4697e5fe4222fc228914f02ce6989e95",
          "blockNumber": "0xaf94b2",
          "transactionHash": "0xd83aa0da770bb20ba0a899e7f4ab08a4ef4b4e2a03cc8c59cc02bded1df2d65d",
          "transactionIndex": "0xf",
          "logIndex": "0x18",
          "removed": false
        },
        {
          "address": "0xade2ba8068b27fae0da07dee0bf3a01f186277e0",
          "topics": [
            "0xb8d3168400543cb1f93defbb510faf4f210a8165083daa84f56c93275659d21b",
            "0x9b8d306400000000000000000000000000000000000000000000000000000000",
            "0x0000000000000000000000003f5bc15173e0463959fdef0dc3fb61d135665dd6"
          ],
          "data": "0x",
          "blockHash": "0xa689181460f5559da865dce9d774546c4697e5fe4222fc228914f02ce6989e95",
          "blockNumber": "0xaf94b2",
          "transactionHash": "0xd83aa0da770bb20ba0a899e7f4ab08a4ef4b4e2a03cc8c59cc02bded1df2d65d",
          "transactionIndex": "0xf",
          "logIndex": "0x19",
          "removed": false
        },
        {
          "address": "0xade2ba8068b27fae0da07dee0bf3a01f186277e0",
          "topics": [
            "0xb8d3168400543cb1f93defbb510faf4f210a8165083daa84f56c93275659d21b",
            "0x76e8651b00000000000000000000000000000000000000000000000000000000",
            "0x0000000000000000000000003f5bc15173e0463959fdef0dc3fb61d135665dd6"
          ],
          "data": "0x",
          "blockHash": "0xa689181460f5559da865dce9d774546c4697e5fe4222fc228914f02ce6989e95",
          "blockNumber": "0xaf94b2",
          "transactionHash": "0xd83aa0da770bb20ba0a899e7f4ab08a4ef4b4e2a03cc8c59cc02bded1df2d65d",
          "transactionIndex": "0xf",
          "logIndex": "0x1a",
          "removed": false
        },
        {
          "address": "0xade2ba8068b27fae0da07dee0bf3a01f186277e0",
          "topics": [
            "0xb8d3168400543cb1f93defbb510faf4f210a8165083daa84f56c93275659d21b",
            "0xad36b68a00000000000000000000000000000000000000000000000000000000",
            "0x0000000000000000000000003f5bc15173e0463959fdef0dc3fb61d135665dd6"
          ],
          "data": "0x",
          "blockHash": "0xa689181460f5559da865dce9d774546c4697e5fe4222fc228914f02ce6989e95",
          "blockNumber": "0xaf94b2",
          "transactionHash": "0xd83aa0da770bb20ba0a899e7f4ab08a4ef4b4e2a03cc8c59cc02bded1df2d65d",
          "transactionIndex": "0xf",
          "logIndex": "0x1b",
          "removed": false
        },
        {
          "address": "0xade2ba8068b27fae0da07dee0bf3a01f186277e0",
          "topics": [
            "0xb8d3168400543cb1f93defbb510faf4f210a8165083daa84f56c93275659d21b",
            "0xbff5b2e300000000000000000000000000000000000000000000000000000000",
            "0x0000000000000000000000003f5bc15173e0463959fdef0dc3fb61d135665dd6"
          ],
          "data": "0x",
          "blockHash": "0xa689181460f5559da865dce9d774546c4697e5fe4222fc228914f02ce6989e95",
          "blockNumber": "0xaf94b2",
          "transactionHash": "0xd83aa0da770bb20ba0a899e7f4ab08a4ef4b4e2a03cc8c59cc02bded1df2d65d",
          "transactionIndex": "0xf",
          "logIndex": "0x1c",
          "removed": false
        },
        {
          "address": "0xade2ba8068b27fae0da07dee0bf3a01f186277e0",
          "topics": [
            "0xb8d3168400543cb1f93defbb510faf4f210a8165083daa84f56c93275659d21b",
            "0x448952c400000000000000000000000000000000000000000000000000000000",
            "0x0000000000000000000000003f5bc15173e0463959fdef0dc3fb61d135665dd6"
          ],
          "data": "0x",
          "blockHash": "0xa689181460f5559da865dce9d774546c4697e5fe4222fc228914f02ce6989e95",
          "blockNumber": "0xaf94b2",
          "transactionHash": "0xd83aa0da770bb20ba0a899e7f4ab08a4ef4b4e2a03cc8c59cc02bded1df2d65d",
          "transactionIndex": "0xf",
          "logIndex": "0x1d",
          "removed": false
        },
        {
          "address": "0xade2ba8068b27fae0da07dee0bf3a01f186277e0",
          "topics": [
            "0xb8d3168400543cb1f93defbb510faf4f210a8165083daa84f56c93275659d21b",
            "0x8d64e1dd00000000000000000000000000000000000000000000000000000000",
            "0x0000000000000000000000003f5bc15173e0463959fdef0dc3fb61d135665dd6"
          ],
          "data": "0x",
          "blockHash": "0xa689181460f5559da865dce9d774546c4697e5fe4222fc228914f02ce6989e95",
          "blockNumber": "0xaf94b2",
          "transactionHash": "0xd83aa0da770bb20ba0a899e7f4ab08a4ef4b4e2a03cc8c59cc02bded1df2d65d",
          "transactionIndex": "0xf",
          "logIndex": "0x1e",
          "removed": false
        },
        {
          "address": "0xade2ba8068b27fae0da07dee0bf3a01f186277e0",
          "topics": [
            "0xb8d3168400543cb1f93defbb510faf4f210a8165083daa84f56c93275659d21b",
            "0x01ffc9a700000000000000000000000000000000000000000000000000000000",
            "0x0000000000000000000000003f5bc15173e0463959fdef0dc3fb61d135665dd6"
          ],
          "data": "0x",
          "blockHash": "0xa689181460f5559da865dce9d774546c4697e5fe4222fc228914f02ce6989e95",
          "blockNumber": "0xaf94b2",
          "transactionHash": "0xd83aa0da770bb20ba0a899e7f4ab08a4ef4b4e2a03cc8c59cc02bded1df2d65d",
          "transactionIndex": "0xf",
          "logIndex": "0x1f",
          "removed": false
        },
        {
          "address": "0xade2ba8068b27fae0da07dee0bf3a01f186277e0",
          "topics": [
            "0xb8d3168400543cb1f93defbb510faf4f210a8165083daa84f56c93275659d21b",
            "0x5b61491f00000000000000000000000000000000000000000000000000000000",
            "0x0000000000000000000000003f5bc15173e0463959fdef0dc3fb61d135665dd6"
          ],
          "data": "0x",
          "blockHash": "0xa689181460f5559da865dce9d774546c4697e5fe4222fc228914f02ce6989e95",
          "blockNumber": "0xaf94b2",
          "transactionHash": "0xd83aa0da770bb20ba0a899e7f4ab08a4ef4b4e2a03cc8c59cc02bded1df2d65d",
          "transactionIndex": "0xf",
          "logIndex": "0x20",
          "removed": false
        },
        {
          "address": "0xade2ba8068b27fae0da07dee0bf3a01f186277e0",
          "topics": [
            "0xb8d3168400543cb1f93defbb510faf4f210a8165083daa84f56c93275659d21b",
            "0x1e83409a00000000000000000000000000000000000000000000000000000000",
            "0x000000000000000000000000a879b01204fbc5d75ba31f5d797a47416a17ea72"
          ],
          "data": "0x",
          "blockHash": "0xa689181460f5559da865dce9d774546c4697e5fe4222fc228914f02ce6989e95",
          "blockNumber": "0xaf94b2",
          "transactionHash": "0xd83aa0da770bb20ba0a899e7f4ab08a4ef4b4e2a03cc8c59cc02bded1df2d65d",
          "transactionIndex": "0xf",
          "logIndex": "0x21",
          "removed": false
        },
        {
          "address": "0xade2ba8068b27fae0da07dee0bf3a01f186277e0",
          "topics": [
            "0xb8d3168400543cb1f93defbb510faf4f210a8165083daa84f56c93275659d21b",
            "0x33bc3ccf00000000000000000000000000000000000000000000000000000000",
            "0x000000000000000000000000a879b01204fbc5d75ba31f5d797a47416a17ea72"
          ],
          "data": "0x",
          "blockHash": "0xa689181460f5559da865dce9d774546c4697e5fe4222fc228914f02ce6989e95",
          "blockNumber": "0xaf94b2",
          "transactionHash": "0xd83aa0da770bb20ba0a899e7f4ab08a4ef4b4e2a03cc8c59cc02bded1df2d65d",
          "transactionIndex": "0xf",
          "logIndex": "0x22",
          "removed": false
        },
        {
          "address": "0xade2ba8068b27fae0da07dee0bf3a01f186277e0",
          "topics": [
            "0xb8d3168400543cb1f93defbb510faf4f210a8165083daa84f56c93275659d21b",
            "0xf08f4f6400000000000000000000000000000000000000000000000000000000",
            "0x000000000000000000000000a879b01204fbc5d75ba31f5d797a47416a17ea72"
          ],
          "data": "0x",
          "blockHash": "0xa689181460f5559da865dce9d774546c4697e5fe4222fc228914f02ce6989e95",
          "blockNumber": "0xaf94b2",
          "transactionHash": "0xd83aa0da770bb20ba0a899e7f4ab08a4ef4b4e2a03cc8c59cc02bded1df2d65d",
          "transactionIndex": "0xf",
          "logIndex": "0x23",
          "removed": false
        },
        {
          "address": "0xade2ba8068b27fae0da07dee0bf3a01f186277e0",
          "topics": [
            "0xb8d3168400543cb1f93defbb510faf4f210a8165083daa84f56c93275659d21b",
            "0x4cd6959c00000000000000000000000000000000000000000000000000000000",
            "0x000000000000000000000000a879b01204fbc5d75ba31f5d797a47416a17ea72"
          ],
          "data": "0x",
          "blockHash": "0xa689181460f5559da865dce9d774546c4697e5fe4222fc228914f02ce6989e95",
          "blockNumber": "0xaf94b2",
          "transactionHash": "0xd83aa0da770bb20ba0a899e7f4ab08a4ef4b4e2a03cc8c59cc02bded1df2d65d",
          "transactionIndex": "0xf",
          "logIndex": "0x24",
          "removed": false
        },
        {
          "address": "0xade2ba8068b27fae0da07dee0bf3a01f186277e0",
          "topics": [
            "0xb8d3168400543cb1f93defbb510faf4f210a8165083daa84f56c93275659d21b",
            "0x7ecebe0000000000000000000000000000000000000000000000000000000000",
            "0x000000000000000000000000a879b01204fbc5d75ba31f5d797a47416a17ea72"
          ],
          "data": "0x",
          "blockHash": "0xa689181460f5559da865dce9d774546c4697e5fe4222fc228914f02ce6989e95",
          "blockNumber": "0xaf94b2",
          "transactionHash": "0xd83aa0da770bb20ba0a899e7f4ab08a4ef4b4e2a03cc8c59cc02bded1df2d65d",
          "transactionIndex": "0xf",
          "logIndex": "0x25",
          "removed": false
        },
        {
          "address": "0xade2ba8068b27fae0da07dee0bf3a01f186277e0",
          "topics": [
            "0xb8d3168400543cb1f93defbb510faf4f210a8165083daa84f56c93275659d21b",
            "0x1b54cc8800000000000000000000000000000000000000000000000000000000",
            "0x000000000000000000000000a879b01204fbc5d75ba31f5d797a47416a17ea72"
          ],
          "data": "0x",
          "blockHash": "0xa689181460f5559da865dce9d774546c4697e5fe4222fc228914f02ce6989e95",
          "blockNumber": "0xaf94b2",
          "transactionHash": "0xd83aa0da770bb20ba0a899e7f4ab08a4ef4b4e2a03cc8c59cc02bded1df2d65d",
          "transactionIndex": "0xf",
          "logIndex": "0x26",
          "removed": false
        },
        {
          "address": "0xade2ba8068b27fae0da07dee0bf3a01f186277e0",
          "topics": [
            "0xb8d3168400543cb1f93defbb510faf4f210a8165083daa84f56c93275659d21b",
            "0x06c5399f00000000000000000000000000000000000000000000000000000000",
            "0x000000000000000000000000661bed734f2981621c14e60d758e3376e385158d"
          ],
          "data": "0x",
          "blockHash": "0xa689181460f5559da865dce9d774546c4697e5fe4222fc228914f02ce6989e95",
          "blockNumber": "0xaf94b2",
          "transactionHash": "0xd83aa0da770bb20ba0a899e7f4ab08a4ef4b4e2a03cc8c59cc02bded1df2d65d",
          "transactionIndex": "0xf",
          "logIndex": "0x27",
          "removed": false
        },
        {
          "address": "0xade2ba8068b27fae0da07dee0bf3a01f186277e0",
          "topics": [
            "0xb8d3168400543cb1f93defbb510faf4f210a8165083daa84f56c93275659d21b",
            "0xe152bcfb00000000000000000000000000000000000000000000000000000000",
            "0x000000000000000000000000661bed734f2981621c14e60d758e3376e385158d"
          ],
          "data": "0x",
          "blockHash": "0xa689181460f5559da865dce9d774546c4697e5fe4222fc228914f02ce6989e95",
          "blockNumber": "0xaf94b2",
          "transactionHash": "0xd83aa0da770bb20ba0a899e7f4ab08a4ef4b4e2a03cc8c59cc02bded1df2d65d",
          "transactionIndex": "0xf",
          "logIndex": "0x28",
          "removed": false
        },
        {
          "address": "0xade2ba8068b27fae0da07dee0bf3a01f186277e0",
          "topics": [
            "0xb8d3168400543cb1f93defbb510faf4f210a8165083daa84f56c93275659d21b",
            "0x85bd7ebd00000000000000000000000000000000000000000000000000000000",
            "0x000000000000000000000000661bed734f2981621c14e60d758e3376e385158d"
          ],
          "data": "0x",
          "blockHash": "0xa689181460f5559da865dce9d774546c4697e5fe4222fc228914f02ce6989e95",
          "blockNumber": "0xaf94b2",
          "transactionHash": "0xd83aa0da770bb20ba0a899e7f4ab08a4ef4b4e2a03cc8c59cc02bded1df2d65d",
          "transactionIndex": "0xf",
          "logIndex": "0x29",
          "removed": false
        },
        {
          "address": "0xade2ba8068b27fae0da07dee0bf3a01f186277e0",
          "topics": [
            "0xb8d3168400543cb1f93defbb510faf4f210a8165083daa84f56c93275659d21b",
            "0x202cbac200000000000000000000000000000000000000000000000000000000",
            "0x000000000000000000000000661bed734f2981621c14e60d758e3376e385158d"
          ],
          "data": "0x",
          "blockHash": "0xa689181460f5559da865dce9d774546c4697e5fe4222fc228914f02ce6989e95",
          "blockNumber": "0xaf94b2",
          "transactionHash": "0xd83aa0da770bb20ba0a899e7f4ab08a4ef4b4e2a03cc8c59cc02bded1df2d65d",
          "transactionIndex": "0xf",
          "logIndex": "0x2a",
          "removed": false
        },
        {
          "address": "0xade2ba8068b27fae0da07dee0bf3a01f186277e0",
          "topics": [
            "0xb8d3168400543cb1f93defbb510faf4f210a8165083daa84f56c93275659d21b",
            "0x8cdf4f3700000000000000000000000000000000000000000000000000000000",
            "0x000000000000000000000000661bed734f2981621c14e60d758e3376e385158d"
          ],
          "data": "0x",
          "blockHash": "0xa689181460f5559da865dce9d774546c4697e5fe4222fc228914f02ce6989e95",
          "blockNumber": "0xaf94b2",
          "transactionHash": "0xd83aa0da770bb20ba0a899e7f4ab08a4ef4b4e2a03cc8c59cc02bded1df2d65d",
          "transactionIndex": "0xf",
          "logIndex": "0x2b",
          "removed": false
        },
        {
          "address": "0xade2ba8068b27fae0da07dee0bf3a01f186277e0",
          "topics": [
            "0xb8d3168400543cb1f93defbb510faf4f210a8165083daa84f56c93275659d21b",
            "0xbde1c45a00000000000000000000000000000000000000000000000000000000",
            "0x000000000000000000000000661bed734f2981621c14e60d758e3376e385158d"
          ],
          "data": "0x",
          "blockHash": "0xa689181460f5559da865dce9d774546c4697e5fe4222fc228914f02ce6989e95",
          "blockNumber": "0xaf94b2",
          "transactionHash": "0xd83aa0da770bb20ba0a899e7f4ab08a4ef4b4e2a03cc8c59cc02bded1df2d65d",
          "transactionIndex": "0xf",
          "logIndex": "0x2c",
          "removed": false
        },
        {
          "address": "0xade2ba8068b27fae0da07dee0bf3a01f186277e0",
          "topics": [
            "0xb8d3168400543cb1f93defbb510faf4f210a8165083daa84f56c93275659d21b",
            "0xca745f7f00000000000000000000000000000000000000000000000000000000",
            "0x000000000000000000000000661bed734f2981621c14e60d758e3376e385158d"
          ],
          "data": "0x",
          "blockHash": "0xa689181460f5559da865dce9d774546c4697e5fe4222fc228914f02ce6989e95",
          "blockNumber": "0xaf94b2",
          "transactionHash": "0xd83aa0da770bb20ba0a899e7f4ab08a4ef4b4e2a03cc8c59cc02bded1df2d65d",
          "transactionIndex": "0xf",
          "logIndex": "0x2d",
          "removed": false
        },
        {
          "address": "0xade2ba8068b27fae0da07dee0bf3a01f186277e0",
          "topics": [
            "0xb8d3168400543cb1f93defbb510faf4f210a8165083daa84f56c93275659d21b",
            "0xe07e360a00000000000000000000000000000000000000000000000000000000",
            "0x000000000000000000000000661bed734f2981621c14e60d758e3376e385158d"
          ],
          "data": "0x",
          "blockHash": "0xa689181460f5559da865dce9d774546c4697e5fe4222fc228914f02ce6989e95",
          "blockNumber": "0xaf94b2",
          "transactionHash": "0xd83aa0da770bb20ba0a899e7f4ab08a4ef4b4e2a03cc8c59cc02bded1df2d65d",
          "transactionIndex": "0xf",
          "logIndex": "0x2e",
          "removed": false
        },
        {
          "address": "0xade2ba8068b27fae0da07dee0bf3a01f186277e0",
          "topics": [
            "0xb8d3168400543cb1f93defbb510faf4f210a8165083daa84f56c93275659d21b",
            "0xf83c213a00000000000000000000000000000000000000000000000000000000",
            "0x000000000000000000000000661bed734f2981621c14e60d758e3376e385158d"
          ],
          "data": "0x",
          "blockHash": "0xa689181460f5559da865dce9d774546c4697e5fe4222fc228914f02ce6989e95",
          "blockNumber": "0xaf94b2",
          "transactionHash": "0xd83aa0da770bb20ba0a899e7f4ab08a4ef4b4e2a03cc8c59cc02bded1df2d65d",
          "transactionIndex": "0xf",
          "logIndex": "0x2f",
          "removed": false
        },
        {
          "address": "0xade2ba8068b27fae0da07dee0bf3a01f186277e0",
          "topics": [
            "0xb8d3168400543cb1f93defbb510faf4f210a8165083daa84f56c93275659d21b",
            "0xbaea7a7700000000000000000000000000000000000000000000000000000000",
            "0x000000000000000000000000661bed734f2981621c14e60d758e3376e385158d"
          ],
          "data": "0x",
          "blockHash": "0xa689181460f5559da865dce9d774546c4697e5fe4222fc228914f02ce6989e95",
          "blockNumber": "0xaf94b2",
          "transactionHash": "0xd83aa0da770bb20ba0a899e7f4ab08a4ef4b4e2a03cc8c59cc02bded1df2d65d",
          "transactionIndex": "0xf",
          "logIndex": "0x30",
          "removed": false
        },
        {
          "address": "0xade2ba8068b27fae0da07dee0bf3a01f186277e0",
          "topics": [
            "0xb8d3168400543cb1f93defbb510faf4f210a8165083daa84f56c93275659d21b",
            "0x8d67acae00000000000000000000000000000000000000000000000000000000",
            "0x000000000000000000000000661bed734f2981621c14e60d758e3376e385158d"
          ],
          "data": "0x",
          "blockHash": "0xa689181460f5559da865dce9d774546c4697e5fe4222fc228914f02ce6989e95",
          "blockNumber": "0xaf94b2",
          "transactionHash": "0xd83aa0da770bb20ba0a899e7f4ab08a4ef4b4e2a03cc8c59cc02bded1df2d65d",
          "transactionIndex": "0xf",
          "logIndex": "0x31",
          "removed": false
        },
        {
          "address": "0xade2ba8068b27fae0da07dee0bf3a01f186277e0",
          "topics": [
            "0xb8d3168400543cb1f93defbb510faf4f210a8165083daa84f56c93275659d21b",
            "0x48e2b8be00000000000000000000000000000000000000000000000000000000",
            "0x000000000000000000000000661bed734f2981621c14e60d758e3376e385158d"
          ],
          "data": "0x",
          "blockHash": "0xa689181460f5559da865dce9d774546c4697e5fe4222fc228914f02ce6989e95",
          "blockNumber": "0xaf94b2",
          "transactionHash": "0xd83aa0da770bb20ba0a899e7f4ab08a4ef4b4e2a03cc8c59cc02bded1df2d65d",
          "transactionIndex": "0xf",
          "logIndex": "0x32",
          "removed": false
        },
        {
          "address": "0xade2ba8068b27fae0da07dee0bf3a01f186277e0",
          "topics": [
            "0xb8d3168400543cb1f93defbb510faf4f210a8165083daa84f56c93275659d21b",
            "0xb55fec5900000000000000000000000000000000000000000000000000000000",
            "0x000000000000000000000000661bed734f2981621c14e60d758e3376e385158d"
          ],
          "data": "0x",
          "blockHash": "0xa689181460f5559da865dce9d774546c4697e5fe4222fc228914f02ce6989e95",
          "blockNumber": "0xaf94b2",
          "transactionHash": "0xd83aa0da770bb20ba0a899e7f4ab08a4ef4b4e2a03cc8c59cc02bded1df2d65d",
          "transactionIndex": "0xf",
          "logIndex": "0x33",
          "removed": false
        },
        {
          "address": "0xade2ba8068b27fae0da07dee0bf3a01f186277e0",
          "topics": [
            "0xb8d3168400543cb1f93defbb510faf4f210a8165083daa84f56c93275659d21b",
            "0x2bb985ba00000000000000000000000000000000000000000000000000000000",
            "0x000000000000000000000000661bed734f2981621c14e60d758e3376e385158d"
          ],
          "data": "0x",
          "blockHash": "0xa689181460f5559da865dce9d774546c4697e5fe4222fc228914f02ce6989e95",
          "blockNumber": "0xaf94b2",
          "transactionHash": "0xd83aa0da770bb20ba0a899e7f4ab08a4ef4b4e2a03cc8c59cc02bded1df2d65d",
          "transactionIndex": "0xf",
          "logIndex": "0x34",
          "removed": false
        },
        {
          "address": "0xade2ba8068b27fae0da07dee0bf3a01f186277e0",
          "topics": [
            "0x2f8788117e7eff1d82e926ec794901d17c78024a50270940304540a733656f0d",
            "0x0000000000000000000000000000000000000000000000000000000000000000",
            "0x000000000000000000000000aeb4a045f2730f7794886dccf527202d61aa11b9",
            "0x000000000000000000000000aeb4a045f2730f7794886dccf527202d61aa11b9"
          ],
          "data": "0x",
          "blockHash": "0xa689181460f5559da865dce9d774546c4697e5fe4222fc228914f02ce6989e95",
          "blockNumber": "0xaf94b2",
          "transactionHash": "0xd83aa0da770bb20ba0a899e7f4ab08a4ef4b4e2a03cc8c59cc02bded1df2d65d",
          "transactionIndex": "0xf",
          "logIndex": "0x35",
          "removed": false
        },
        {
          "address": "0xade2ba8068b27fae0da07dee0bf3a01f186277e0",
          "topics": [
            "0x358e86a1dfb855dec78313c1b1f8048a18cd714c99806ec88411ae6e24dfee85"
          ],
          "data": "0x0000000000000000000000000000000000000000000000000000000066728844",
          "blockHash": "0xa689181460f5559da865dce9d774546c4697e5fe4222fc228914f02ce6989e95",
          "blockNumber": "0xaf94b2",
          "transactionHash": "0xd83aa0da770bb20ba0a899e7f4ab08a4ef4b4e2a03cc8c59cc02bded1df2d65d",
          "transactionIndex": "0xf",
          "logIndex": "0x36",
          "removed": false
        },
        {
          "address": "0xade2ba8068b27fae0da07dee0bf3a01f186277e0",
          "topics": [
            "0xc7f505b2f371ae2175ee4913f4499e1f2633a7b5936321eed1cdaeb6115181d2"
          ],
          "data": "0x0000000000000000000000000000000000000000000000000000000000000001",
          "blockHash": "0xa689181460f5559da865dce9d774546c4697e5fe4222fc228914f02ce6989e95",
          "blockNumber": "0xaf94b2",
          "transactionHash": "0xd83aa0da770bb20ba0a899e7f4ab08a4ef4b4e2a03cc8c59cc02bded1df2d65d",
          "transactionIndex": "0xf",
          "logIndex": "0x37",
          "removed": false
        }
      ],
      "logsBloom": "0x00008004200080080000000000000040080081410000000800800005800000000000200000000400600000004000020000000020028400000000000004400620020000004001000000040800840000100810080200000000092000000000100084004000060000000000000120060801804208002000200020000000008000000000000002802000400a01000050000000002801083880c40600000020401004808080000010000000000004000000000005801240000000203001000800000000406004000012400400000800000048000000000004800300040000000020000000000002000009000000201010800000000020e00101190001200000124000",
      "type": "0x2",
      "transactionHash": "0xd83aa0da770bb20ba0a899e7f4ab08a4ef4b4e2a03cc8c59cc02bded1df2d65d",
      "transactionIndex": "0xf",
      "blockHash": "0xa689181460f5559da865dce9d774546c4697e5fe4222fc228914f02ce6989e95",
      "blockNumber": "0xaf94b2",
      "gasUsed": "0x71fb8d",
      "effectiveGasPrice": "0x187ff",
      "from": "0xaeb4a045f2730f7794886dccf527202d61aa11b9",
      "to": "0xade2ba8068b27fae0da07dee0bf3a01f186277e0",
      "contractAddress": null,
      "l1BaseFeeScalar": "0x44d",
      "l1BlobBaseFee": "0x1",
      "l1BlobBaseFeeScalar": "0xa118b",
      "l1Fee": "0x34737d4",
      "l1GasPrice": "0x1f7667",
      "l1GasUsed": "0x5ea2"
    }
  ],
  "libraries": [],
  "pending": [],
  "returns": {
    "0": {
      "internal_type": "contract ZeekRouter",
      "value": "0xADE2ba8068B27fae0Da07DEe0bf3a01F186277E0"
    }
  },
  "timestamp": 1718782026,
  "chain": 84532,
  "commit": "a209400"
}